{
	"contract/test2.sol": {
		"scofield": {
			"abi": [
				{
					"inputs": [
						{
							"internalType": "string",
							"name": "_name",
							"type": "string"
						},
						{
							"internalType": "uint256",
							"name": "_favouritePerson",
							"type": "uint256"
						}
					],
					"name": "addNewPerson",
					"outputs": [],
					"stateMutability": "nonpayable",
					"type": "function"
				},
				{
					"inputs": [
						{
							"internalType": "uint256",
							"name": "_favouritePerson",
							"type": "uint256"
						}
					],
					"name": "addPerson",
					"outputs": [],
					"stateMutability": "nonpayable",
					"type": "function"
				},
				{
					"inputs": [
						{
							"internalType": "uint256",
							"name": "",
							"type": "uint256"
						}
					],
					"name": "listofPerson",
					"outputs": [
						{
							"internalType": "string",
							"name": "name",
							"type": "string"
						},
						{
							"internalType": "uint256",
							"name": "favouritePerson",
							"type": "uint256"
						}
					],
					"stateMutability": "view",
					"type": "function"
				},
				{
					"inputs": [
						{
							"internalType": "string",
							"name": "",
							"type": "string"
						}
					],
					"name": "mapFavouriteNumber",
					"outputs": [
						{
							"internalType": "uint256",
							"name": "",
							"type": "uint256"
						}
					],
					"stateMutability": "view",
					"type": "function"
				},
				{
					"inputs": [
						{
							"internalType": "uint256",
							"name": "",
							"type": "uint256"
						}
					],
					"name": "mapFavouriteNumber2",
					"outputs": [
						{
							"internalType": "string",
							"name": "",
							"type": "string"
						}
					],
					"stateMutability": "view",
					"type": "function"
				},
				{
					"inputs": [],
					"name": "retrievePerson",
					"outputs": [
						{
							"internalType": "uint256",
							"name": "",
							"type": "uint256"
						}
					],
					"stateMutability": "view",
					"type": "function"
				}
			],
			"devdoc": {
				"kind": "dev",
				"methods": {},
				"version": 1
			},
			"evm": {
				"assembly": "    /* \"contract/test2.sol\":59:1026  contract scofield {... */\n  mstore(0x40, 0x80)\n  callvalue\n  dup1\n  iszero\n  tag_1\n  jumpi\n  0x00\n  dup1\n  revert\ntag_1:\n  pop\n  dataSize(sub_0)\n  dup1\n  dataOffset(sub_0)\n  0x00\n  codecopy\n  0x00\n  return\nstop\n\nsub_0: assembly {\n        /* \"contract/test2.sol\":59:1026  contract scofield {... */\n      mstore(0x40, 0x80)\n      callvalue\n      dup1\n      iszero\n      tag_1\n      jumpi\n      0x00\n      dup1\n      revert\n    tag_1:\n      pop\n      jumpi(tag_2, lt(calldatasize, 0x04))\n      shr(0xe0, calldataload(0x00))\n      dup1\n      0x1f909971\n      eq\n      tag_3\n      jumpi\n      dup1\n      0x4de86672\n      eq\n      tag_4\n      jumpi\n      dup1\n      0x649ceab8\n      eq\n      tag_5\n      jumpi\n      dup1\n      0x7bc55ce1\n      eq\n      tag_6\n      jumpi\n      dup1\n      0xd3c1e0d9\n      eq\n      tag_7\n      jumpi\n      dup1\n      0xda9c2b6b\n      eq\n      tag_8\n      jumpi\n    tag_2:\n      0x00\n      dup1\n      revert\n        /* \"contract/test2.sol\":294:347  mapping(uint256 => string) public mapFavouriteNumber2 */\n    tag_3:\n      tag_9\n      0x04\n      dup1\n      calldatasize\n      sub\n      dup2\n      add\n      swap1\n      tag_10\n      swap2\n      swap1\n      tag_11\n      jump\t// in\n    tag_10:\n      tag_12\n      jump\t// in\n    tag_9:\n      mload(0x40)\n      tag_13\n      swap2\n      swap1\n      tag_14\n      jump\t// in\n    tag_13:\n      mload(0x40)\n      dup1\n      swap2\n      sub\n      swap1\n      return\n        /* \"contract/test2.sol\":389:420  NewPerson[] public listofPerson */\n    tag_4:\n      tag_15\n      0x04\n      dup1\n      calldatasize\n      sub\n      dup2\n      add\n      swap1\n      tag_16\n      swap2\n      swap1\n      tag_11\n      jump\t// in\n    tag_16:\n      tag_17\n      jump\t// in\n    tag_15:\n      mload(0x40)\n      tag_18\n      swap3\n      swap2\n      swap1\n      tag_19\n      jump\t// in\n    tag_18:\n      mload(0x40)\n      dup1\n      swap2\n      sub\n      swap1\n      return\n        /* \"contract/test2.sol\":236:288  mapping(string => uint256) public mapFavouriteNumber */\n    tag_5:\n      tag_20\n      0x04\n      dup1\n      calldatasize\n      sub\n      dup2\n      add\n      swap1\n      tag_21\n      swap2\n      swap1\n      tag_22\n      jump\t// in\n    tag_21:\n      tag_23\n      jump\t// in\n    tag_20:\n      mload(0x40)\n      tag_24\n      swap2\n      swap1\n      tag_25\n      jump\t// in\n    tag_24:\n      mload(0x40)\n      dup1\n      swap2\n      sub\n      swap1\n      return\n        /* \"contract/test2.sol\":427:526  function addPerson(uint _favouritePerson)public{... */\n    tag_6:\n      tag_26\n      0x04\n      dup1\n      calldatasize\n      sub\n      dup2\n      add\n      swap1\n      tag_27\n      swap2\n      swap1\n      tag_11\n      jump\t// in\n    tag_27:\n      tag_28\n      jump\t// in\n    tag_26:\n      stop\n        /* \"contract/test2.sol\":552:645  function retrievePerson()public view returns(uint256){... */\n    tag_7:\n      tag_29\n      tag_30\n      jump\t// in\n    tag_29:\n      mload(0x40)\n      tag_31\n      swap2\n      swap1\n      tag_25\n      jump\t// in\n    tag_31:\n      mload(0x40)\n      dup1\n      swap2\n      sub\n      swap1\n      return\n        /* \"contract/test2.sol\":772:1022  function addNewPerson(string memory _name, uint _favouritePerson)public{... */\n    tag_8:\n      tag_32\n      0x04\n      dup1\n      calldatasize\n      sub\n      dup2\n      add\n      swap1\n      tag_33\n      swap2\n      swap1\n      tag_34\n      jump\t// in\n    tag_33:\n      tag_35\n      jump\t// in\n    tag_32:\n      stop\n        /* \"contract/test2.sol\":294:347  mapping(uint256 => string) public mapFavouriteNumber2 */\n    tag_12:\n      mstore(0x20, 0x02)\n      dup1\n      0x00\n      mstore\n      keccak256(0x00, 0x40)\n      0x00\n      swap2\n      pop\n      swap1\n      pop\n      dup1\n      sload\n      tag_36\n      swap1\n      tag_37\n      jump\t// in\n    tag_36:\n      dup1\n      0x1f\n      add\n      0x20\n      dup1\n      swap2\n      div\n      mul\n      0x20\n      add\n      mload(0x40)\n      swap1\n      dup2\n      add\n      0x40\n      mstore\n      dup1\n      swap3\n      swap2\n      swap1\n      dup2\n      dup2\n      mstore\n      0x20\n      add\n      dup3\n      dup1\n      sload\n      tag_38\n      swap1\n      tag_37\n      jump\t// in\n    tag_38:\n      dup1\n      iszero\n      tag_39\n      jumpi\n      dup1\n      0x1f\n      lt\n      tag_40\n      jumpi\n      0x0100\n      dup1\n      dup4\n      sload\n      div\n      mul\n      dup4\n      mstore\n      swap2\n      0x20\n      add\n      swap2\n      jump(tag_39)\n    tag_40:\n      dup3\n      add\n      swap2\n      swap1\n      0x00\n      mstore\n      keccak256(0x00, 0x20)\n      swap1\n    tag_41:\n      dup2\n      sload\n      dup2\n      mstore\n      swap1\n      0x01\n      add\n      swap1\n      0x20\n      add\n      dup1\n      dup4\n      gt\n      tag_41\n      jumpi\n      dup3\n      swap1\n      sub\n      0x1f\n      and\n      dup3\n      add\n      swap2\n    tag_39:\n      pop\n      pop\n      pop\n      pop\n      pop\n      dup2\n      jump\t// out\n        /* \"contract/test2.sol\":389:420  NewPerson[] public listofPerson */\n    tag_17:\n      0x03\n      dup2\n      dup2\n      sload\n      dup2\n      lt\n      tag_42\n      jumpi\n      0x00\n      dup1\n      revert\n    tag_42:\n      swap1\n      0x00\n      mstore\n      keccak256(0x00, 0x20)\n      swap1\n      0x02\n      mul\n      add\n      0x00\n      swap2\n      pop\n      swap1\n      pop\n      dup1\n      0x00\n      add\n      dup1\n      sload\n      tag_44\n      swap1\n      tag_37\n      jump\t// in\n    tag_44:\n      dup1\n      0x1f\n      add\n      0x20\n      dup1\n      swap2\n      div\n      mul\n      0x20\n      add\n      mload(0x40)\n      swap1\n      dup2\n      add\n      0x40\n      mstore\n      dup1\n      swap3\n      swap2\n      swap1\n      dup2\n      dup2\n      mstore\n      0x20\n      add\n      dup3\n      dup1\n      sload\n      tag_45\n      swap1\n      tag_37\n      jump\t// in\n    tag_45:\n      dup1\n      iszero\n      tag_46\n      jumpi\n      dup1\n      0x1f\n      lt\n      tag_47\n      jumpi\n      0x0100\n      dup1\n      dup4\n      sload\n      div\n      mul\n      dup4\n      mstore\n      swap2\n      0x20\n      add\n      swap2\n      jump(tag_46)\n    tag_47:\n      dup3\n      add\n      swap2\n      swap1\n      0x00\n      mstore\n      keccak256(0x00, 0x20)\n      swap1\n    tag_48:\n      dup2\n      sload\n      dup2\n      mstore\n      swap1\n      0x01\n      add\n      swap1\n      0x20\n      add\n      dup1\n      dup4\n      gt\n      tag_48\n      jumpi\n      dup3\n      swap1\n      sub\n      0x1f\n      and\n      dup3\n      add\n      swap2\n    tag_46:\n      pop\n      pop\n      pop\n      pop\n      pop\n      swap1\n      dup1\n      0x01\n      add\n      sload\n      swap1\n      pop\n      dup3\n      jump\t// out\n        /* \"contract/test2.sol\":236:288  mapping(string => uint256) public mapFavouriteNumber */\n    tag_23:\n      0x01\n      dup2\n      dup1\n      mload\n      0x20\n      dup2\n      add\n      dup3\n      add\n      dup1\n      mload\n      dup5\n      dup3\n      mstore\n      0x20\n      dup4\n      add\n      0x20\n      dup6\n      add\n      keccak256\n      dup2\n      dup4\n      mstore\n      dup1\n      swap6\n      pop\n      pop\n      pop\n      pop\n      pop\n      pop\n      0x00\n      swap2\n      pop\n      swap1\n      pop\n      sload\n      dup2\n      jump\t// out\n        /* \"contract/test2.sol\":427:526  function addPerson(uint _favouritePerson)public{... */\n    tag_28:\n        /* \"contract/test2.sol\":503:519  _favouritePerson */\n      dup1\n        /* \"contract/test2.sol\":484:500  Favourite_person */\n      0x00\n        /* \"contract/test2.sol\":484:519  Favourite_person = _favouritePerson */\n      dup2\n      swap1\n      sstore\n      pop\n        /* \"contract/test2.sol\":427:526  function addPerson(uint _favouritePerson)public{... */\n      pop\n      jump\t// out\n        /* \"contract/test2.sol\":552:645  function retrievePerson()public view returns(uint256){... */\n    tag_30:\n        /* \"contract/test2.sol\":597:604  uint256 */\n      0x00\n        /* \"contract/test2.sol\":622:638  Favourite_person */\n      dup1\n      sload\n        /* \"contract/test2.sol\":615:638  return Favourite_person */\n      swap1\n      pop\n        /* \"contract/test2.sol\":552:645  function retrievePerson()public view returns(uint256){... */\n      swap1\n      jump\t// out\n        /* \"contract/test2.sol\":772:1022  function addNewPerson(string memory _name, uint _favouritePerson)public{... */\n    tag_35:\n        /* \"contract/test2.sol\":853:865  listofPerson */\n      0x03\n        /* \"contract/test2.sol\":871:905  NewPerson(_name, _favouritePerson) */\n      mload(0x40)\n      dup1\n      0x40\n      add\n      0x40\n      mstore\n      dup1\n        /* \"contract/test2.sol\":881:886  _name */\n      dup5\n        /* \"contract/test2.sol\":871:905  NewPerson(_name, _favouritePerson) */\n      dup2\n      mstore\n      0x20\n      add\n        /* \"contract/test2.sol\":888:904  _favouritePerson */\n      dup4\n        /* \"contract/test2.sol\":871:905  NewPerson(_name, _favouritePerson) */\n      dup2\n      mstore\n      pop\n        /* \"contract/test2.sol\":853:906  listofPerson.push(NewPerson(_name, _favouritePerson)) */\n      swap1\n      dup1\n      0x01\n      dup2\n      sload\n      add\n      dup1\n      dup3\n      sstore\n      dup1\n      swap2\n      pop\n      pop\n      0x01\n      swap1\n      sub\n      swap1\n      0x00\n      mstore\n      keccak256(0x00, 0x20)\n      swap1\n      0x02\n      mul\n      add\n      0x00\n      swap1\n      swap2\n      swap1\n      swap2\n      swap1\n      swap2\n      pop\n      0x00\n      dup3\n      add\n      mload\n      dup2\n      0x00\n      add\n      swap1\n      dup2\n      tag_53\n      swap2\n      swap1\n      tag_54\n      jump\t// in\n    tag_53:\n      pop\n      0x20\n      dup3\n      add\n      mload\n      dup2\n      0x01\n      add\n      sstore\n      pop\n      pop\n        /* \"contract/test2.sol\":944:960  _favouritePerson */\n      dup1\n        /* \"contract/test2.sol\":916:934  mapFavouriteNumber */\n      0x01\n        /* \"contract/test2.sol\":935:940  _name */\n      dup4\n        /* \"contract/test2.sol\":916:941  mapFavouriteNumber[_name] */\n      mload(0x40)\n      tag_55\n      swap2\n      swap1\n      tag_56\n      jump\t// in\n    tag_55:\n      swap1\n      dup2\n      mstore\n      0x20\n      add\n      mload(0x40)\n      dup1\n      swap2\n      sub\n      swap1\n      keccak256\n        /* \"contract/test2.sol\":916:960  mapFavouriteNumber[_name] = _favouritePerson */\n      dup2\n      swap1\n      sstore\n      pop\n        /* \"contract/test2.sol\":1010:1015  _name */\n      dup2\n        /* \"contract/test2.sol\":970:989  mapFavouriteNumber2 */\n      0x02\n        /* \"contract/test2.sol\":970:1007  mapFavouriteNumber2[_favouritePerson] */\n      0x00\n        /* \"contract/test2.sol\":990:1006  _favouritePerson */\n      dup4\n        /* \"contract/test2.sol\":970:1007  mapFavouriteNumber2[_favouritePerson] */\n      dup2\n      mstore\n      0x20\n      add\n      swap1\n      dup2\n      mstore\n      0x20\n      add\n      0x00\n      keccak256\n        /* \"contract/test2.sol\":970:1015  mapFavouriteNumber2[_favouritePerson] = _name */\n      swap1\n      dup2\n      tag_57\n      swap2\n      swap1\n      tag_54\n      jump\t// in\n    tag_57:\n      pop\n        /* \"contract/test2.sol\":772:1022  function addNewPerson(string memory _name, uint _favouritePerson)public{... */\n      pop\n      pop\n      jump\t// out\n        /* \"#utility.yul\":7:82   */\n    tag_58:\n        /* \"#utility.yul\":40:46   */\n      0x00\n        /* \"#utility.yul\":73:75   */\n      0x40\n        /* \"#utility.yul\":67:76   */\n      mload\n        /* \"#utility.yul\":57:76   */\n      swap1\n      pop\n        /* \"#utility.yul\":7:82   */\n      swap1\n      jump\t// out\n        /* \"#utility.yul\":88:205   */\n    tag_59:\n        /* \"#utility.yul\":197:198   */\n      0x00\n        /* \"#utility.yul\":194:195   */\n      dup1\n        /* \"#utility.yul\":187:199   */\n      revert\n        /* \"#utility.yul\":211:328   */\n    tag_60:\n        /* \"#utility.yul\":320:321   */\n      0x00\n        /* \"#utility.yul\":317:318   */\n      dup1\n        /* \"#utility.yul\":310:322   */\n      revert\n        /* \"#utility.yul\":334:411   */\n    tag_61:\n        /* \"#utility.yul\":371:378   */\n      0x00\n        /* \"#utility.yul\":400:405   */\n      dup2\n        /* \"#utility.yul\":389:405   */\n      swap1\n      pop\n        /* \"#utility.yul\":334:411   */\n      swap2\n      swap1\n      pop\n      jump\t// out\n        /* \"#utility.yul\":417:539   */\n    tag_62:\n        /* \"#utility.yul\":490:514   */\n      tag_103\n        /* \"#utility.yul\":508:513   */\n      dup2\n        /* \"#utility.yul\":490:514   */\n      tag_61\n      jump\t// in\n    tag_103:\n        /* \"#utility.yul\":483:488   */\n      dup2\n        /* \"#utility.yul\":480:515   */\n      eq\n        /* \"#utility.yul\":470:533   */\n      tag_104\n      jumpi\n        /* \"#utility.yul\":529:530   */\n      0x00\n        /* \"#utility.yul\":526:527   */\n      dup1\n        /* \"#utility.yul\":519:531   */\n      revert\n        /* \"#utility.yul\":470:533   */\n    tag_104:\n        /* \"#utility.yul\":417:539   */\n      pop\n      jump\t// out\n        /* \"#utility.yul\":545:684   */\n    tag_63:\n        /* \"#utility.yul\":591:596   */\n      0x00\n        /* \"#utility.yul\":629:635   */\n      dup2\n        /* \"#utility.yul\":616:636   */\n      calldataload\n        /* \"#utility.yul\":607:636   */\n      swap1\n      pop\n        /* \"#utility.yul\":645:678   */\n      tag_106\n        /* \"#utility.yul\":672:677   */\n      dup2\n        /* \"#utility.yul\":645:678   */\n      tag_62\n      jump\t// in\n    tag_106:\n        /* \"#utility.yul\":545:684   */\n      swap3\n      swap2\n      pop\n      pop\n      jump\t// out\n        /* \"#utility.yul\":690:1019   */\n    tag_11:\n        /* \"#utility.yul\":749:755   */\n      0x00\n        /* \"#utility.yul\":798:800   */\n      0x20\n        /* \"#utility.yul\":786:795   */\n      dup3\n        /* \"#utility.yul\":777:784   */\n      dup5\n        /* \"#utility.yul\":773:796   */\n      sub\n        /* \"#utility.yul\":769:801   */\n      slt\n        /* \"#utility.yul\":766:885   */\n      iszero\n      tag_108\n      jumpi\n        /* \"#utility.yul\":804:883   */\n      tag_109\n      tag_59\n      jump\t// in\n    tag_109:\n        /* \"#utility.yul\":766:885   */\n    tag_108:\n        /* \"#utility.yul\":924:925   */\n      0x00\n        /* \"#utility.yul\":949:1002   */\n      tag_110\n        /* \"#utility.yul\":994:1001   */\n      dup5\n        /* \"#utility.yul\":985:991   */\n      dup3\n        /* \"#utility.yul\":974:983   */\n      dup6\n        /* \"#utility.yul\":970:992   */\n      add\n        /* \"#utility.yul\":949:1002   */\n      tag_63\n      jump\t// in\n    tag_110:\n        /* \"#utility.yul\":939:1002   */\n      swap2\n      pop\n        /* \"#utility.yul\":895:1012   */\n      pop\n        /* \"#utility.yul\":690:1019   */\n      swap3\n      swap2\n      pop\n      pop\n      jump\t// out\n        /* \"#utility.yul\":1025:1124   */\n    tag_64:\n        /* \"#utility.yul\":1077:1083   */\n      0x00\n        /* \"#utility.yul\":1111:1116   */\n      dup2\n        /* \"#utility.yul\":1105:1117   */\n      mload\n        /* \"#utility.yul\":1095:1117   */\n      swap1\n      pop\n        /* \"#utility.yul\":1025:1124   */\n      swap2\n      swap1\n      pop\n      jump\t// out\n        /* \"#utility.yul\":1130:1299   */\n    tag_65:\n        /* \"#utility.yul\":1214:1225   */\n      0x00\n        /* \"#utility.yul\":1248:1254   */\n      dup3\n        /* \"#utility.yul\":1243:1246   */\n      dup3\n        /* \"#utility.yul\":1236:1255   */\n      mstore\n        /* \"#utility.yul\":1288:1292   */\n      0x20\n        /* \"#utility.yul\":1283:1286   */\n      dup3\n        /* \"#utility.yul\":1279:1293   */\n      add\n        /* \"#utility.yul\":1264:1293   */\n      swap1\n      pop\n        /* \"#utility.yul\":1130:1299   */\n      swap3\n      swap2\n      pop\n      pop\n      jump\t// out\n        /* \"#utility.yul\":1305:1551   */\n    tag_66:\n        /* \"#utility.yul\":1386:1387   */\n      0x00\n        /* \"#utility.yul\":1396:1509   */\n    tag_114:\n        /* \"#utility.yul\":1410:1416   */\n      dup4\n        /* \"#utility.yul\":1407:1408   */\n      dup2\n        /* \"#utility.yul\":1404:1417   */\n      lt\n        /* \"#utility.yul\":1396:1509   */\n      iszero\n      tag_116\n      jumpi\n        /* \"#utility.yul\":1495:1496   */\n      dup1\n        /* \"#utility.yul\":1490:1493   */\n      dup3\n        /* \"#utility.yul\":1486:1497   */\n      add\n        /* \"#utility.yul\":1480:1498   */\n      mload\n        /* \"#utility.yul\":1476:1477   */\n      dup2\n        /* \"#utility.yul\":1471:1474   */\n      dup5\n        /* \"#utility.yul\":1467:1478   */\n      add\n        /* \"#utility.yul\":1460:1499   */\n      mstore\n        /* \"#utility.yul\":1432:1434   */\n      0x20\n        /* \"#utility.yul\":1429:1430   */\n      dup2\n        /* \"#utility.yul\":1425:1435   */\n      add\n        /* \"#utility.yul\":1420:1435   */\n      swap1\n      pop\n        /* \"#utility.yul\":1396:1509   */\n      jump(tag_114)\n    tag_116:\n        /* \"#utility.yul\":1543:1544   */\n      0x00\n        /* \"#utility.yul\":1534:1540   */\n      dup5\n        /* \"#utility.yul\":1529:1532   */\n      dup5\n        /* \"#utility.yul\":1525:1541   */\n      add\n        /* \"#utility.yul\":1518:1545   */\n      mstore\n        /* \"#utility.yul\":1367:1551   */\n      pop\n        /* \"#utility.yul\":1305:1551   */\n      pop\n      pop\n      pop\n      jump\t// out\n        /* \"#utility.yul\":1557:1659   */\n    tag_67:\n        /* \"#utility.yul\":1598:1604   */\n      0x00\n        /* \"#utility.yul\":1649:1651   */\n      0x1f\n        /* \"#utility.yul\":1645:1652   */\n      not\n        /* \"#utility.yul\":1640:1642   */\n      0x1f\n        /* \"#utility.yul\":1633:1638   */\n      dup4\n        /* \"#utility.yul\":1629:1643   */\n      add\n        /* \"#utility.yul\":1625:1653   */\n      and\n        /* \"#utility.yul\":1615:1653   */\n      swap1\n      pop\n        /* \"#utility.yul\":1557:1659   */\n      swap2\n      swap1\n      pop\n      jump\t// out\n        /* \"#utility.yul\":1665:2042   */\n    tag_68:\n        /* \"#utility.yul\":1753:1756   */\n      0x00\n        /* \"#utility.yul\":1781:1820   */\n      tag_119\n        /* \"#utility.yul\":1814:1819   */\n      dup3\n        /* \"#utility.yul\":1781:1820   */\n      tag_64\n      jump\t// in\n    tag_119:\n        /* \"#utility.yul\":1836:1907   */\n      tag_120\n        /* \"#utility.yul\":1900:1906   */\n      dup2\n        /* \"#utility.yul\":1895:1898   */\n      dup6\n        /* \"#utility.yul\":1836:1907   */\n      tag_65\n      jump\t// in\n    tag_120:\n        /* \"#utility.yul\":1829:1907   */\n      swap4\n      pop\n        /* \"#utility.yul\":1916:1981   */\n      tag_121\n        /* \"#utility.yul\":1974:1980   */\n      dup2\n        /* \"#utility.yul\":1969:1972   */\n      dup6\n        /* \"#utility.yul\":1962:1966   */\n      0x20\n        /* \"#utility.yul\":1955:1960   */\n      dup7\n        /* \"#utility.yul\":1951:1967   */\n      add\n        /* \"#utility.yul\":1916:1981   */\n      tag_66\n      jump\t// in\n    tag_121:\n        /* \"#utility.yul\":2006:2035   */\n      tag_122\n        /* \"#utility.yul\":2028:2034   */\n      dup2\n        /* \"#utility.yul\":2006:2035   */\n      tag_67\n      jump\t// in\n    tag_122:\n        /* \"#utility.yul\":2001:2004   */\n      dup5\n        /* \"#utility.yul\":1997:2036   */\n      add\n        /* \"#utility.yul\":1990:2036   */\n      swap2\n      pop\n        /* \"#utility.yul\":1757:2042   */\n      pop\n        /* \"#utility.yul\":1665:2042   */\n      swap3\n      swap2\n      pop\n      pop\n      jump\t// out\n        /* \"#utility.yul\":2048:2361   */\n    tag_14:\n        /* \"#utility.yul\":2161:2165   */\n      0x00\n        /* \"#utility.yul\":2199:2201   */\n      0x20\n        /* \"#utility.yul\":2188:2197   */\n      dup3\n        /* \"#utility.yul\":2184:2202   */\n      add\n        /* \"#utility.yul\":2176:2202   */\n      swap1\n      pop\n        /* \"#utility.yul\":2248:2257   */\n      dup2\n        /* \"#utility.yul\":2242:2246   */\n      dup2\n        /* \"#utility.yul\":2238:2258   */\n      sub\n        /* \"#utility.yul\":2234:2235   */\n      0x00\n        /* \"#utility.yul\":2223:2232   */\n      dup4\n        /* \"#utility.yul\":2219:2236   */\n      add\n        /* \"#utility.yul\":2212:2259   */\n      mstore\n        /* \"#utility.yul\":2276:2354   */\n      tag_124\n        /* \"#utility.yul\":2349:2353   */\n      dup2\n        /* \"#utility.yul\":2340:2346   */\n      dup5\n        /* \"#utility.yul\":2276:2354   */\n      tag_68\n      jump\t// in\n    tag_124:\n        /* \"#utility.yul\":2268:2354   */\n      swap1\n      pop\n        /* \"#utility.yul\":2048:2361   */\n      swap3\n      swap2\n      pop\n      pop\n      jump\t// out\n        /* \"#utility.yul\":2367:2485   */\n    tag_69:\n        /* \"#utility.yul\":2454:2478   */\n      tag_126\n        /* \"#utility.yul\":2472:2477   */\n      dup2\n        /* \"#utility.yul\":2454:2478   */\n      tag_61\n      jump\t// in\n    tag_126:\n        /* \"#utility.yul\":2449:2452   */\n      dup3\n        /* \"#utility.yul\":2442:2479   */\n      mstore\n        /* \"#utility.yul\":2367:2485   */\n      pop\n      pop\n      jump\t// out\n        /* \"#utility.yul\":2491:2914   */\n    tag_19:\n        /* \"#utility.yul\":2632:2636   */\n      0x00\n        /* \"#utility.yul\":2670:2672   */\n      0x40\n        /* \"#utility.yul\":2659:2668   */\n      dup3\n        /* \"#utility.yul\":2655:2673   */\n      add\n        /* \"#utility.yul\":2647:2673   */\n      swap1\n      pop\n        /* \"#utility.yul\":2719:2728   */\n      dup2\n        /* \"#utility.yul\":2713:2717   */\n      dup2\n        /* \"#utility.yul\":2709:2729   */\n      sub\n        /* \"#utility.yul\":2705:2706   */\n      0x00\n        /* \"#utility.yul\":2694:2703   */\n      dup4\n        /* \"#utility.yul\":2690:2707   */\n      add\n        /* \"#utility.yul\":2683:2730   */\n      mstore\n        /* \"#utility.yul\":2747:2825   */\n      tag_128\n        /* \"#utility.yul\":2820:2824   */\n      dup2\n        /* \"#utility.yul\":2811:2817   */\n      dup6\n        /* \"#utility.yul\":2747:2825   */\n      tag_68\n      jump\t// in\n    tag_128:\n        /* \"#utility.yul\":2739:2825   */\n      swap1\n      pop\n        /* \"#utility.yul\":2835:2907   */\n      tag_129\n        /* \"#utility.yul\":2903:2905   */\n      0x20\n        /* \"#utility.yul\":2892:2901   */\n      dup4\n        /* \"#utility.yul\":2888:2906   */\n      add\n        /* \"#utility.yul\":2879:2885   */\n      dup5\n        /* \"#utility.yul\":2835:2907   */\n      tag_69\n      jump\t// in\n    tag_129:\n        /* \"#utility.yul\":2491:2914   */\n      swap4\n      swap3\n      pop\n      pop\n      pop\n      jump\t// out\n        /* \"#utility.yul\":2920:3037   */\n    tag_70:\n        /* \"#utility.yul\":3029:3030   */\n      0x00\n        /* \"#utility.yul\":3026:3027   */\n      dup1\n        /* \"#utility.yul\":3019:3031   */\n      revert\n        /* \"#utility.yul\":3043:3160   */\n    tag_71:\n        /* \"#utility.yul\":3152:3153   */\n      0x00\n        /* \"#utility.yul\":3149:3150   */\n      dup1\n        /* \"#utility.yul\":3142:3154   */\n      revert\n        /* \"#utility.yul\":3166:3346   */\n    tag_72:\n        /* \"#utility.yul\":3214:3291   */\n      0x4e487b7100000000000000000000000000000000000000000000000000000000\n        /* \"#utility.yul\":3211:3212   */\n      0x00\n        /* \"#utility.yul\":3204:3292   */\n      mstore\n        /* \"#utility.yul\":3311:3315   */\n      0x41\n        /* \"#utility.yul\":3308:3309   */\n      0x04\n        /* \"#utility.yul\":3301:3316   */\n      mstore\n        /* \"#utility.yul\":3335:3339   */\n      0x24\n        /* \"#utility.yul\":3332:3333   */\n      0x00\n        /* \"#utility.yul\":3325:3340   */\n      revert\n        /* \"#utility.yul\":3352:3633   */\n    tag_73:\n        /* \"#utility.yul\":3435:3462   */\n      tag_134\n        /* \"#utility.yul\":3457:3461   */\n      dup3\n        /* \"#utility.yul\":3435:3462   */\n      tag_67\n      jump\t// in\n    tag_134:\n        /* \"#utility.yul\":3427:3433   */\n      dup2\n        /* \"#utility.yul\":3423:3463   */\n      add\n        /* \"#utility.yul\":3565:3571   */\n      dup2\n        /* \"#utility.yul\":3553:3563   */\n      dup2\n        /* \"#utility.yul\":3550:3572   */\n      lt\n        /* \"#utility.yul\":3529:3547   */\n      0xffffffffffffffff\n        /* \"#utility.yul\":3517:3527   */\n      dup3\n        /* \"#utility.yul\":3514:3548   */\n      gt\n        /* \"#utility.yul\":3511:3573   */\n      or\n        /* \"#utility.yul\":3508:3596   */\n      iszero\n      tag_135\n      jumpi\n        /* \"#utility.yul\":3576:3594   */\n      tag_136\n      tag_72\n      jump\t// in\n    tag_136:\n        /* \"#utility.yul\":3508:3596   */\n    tag_135:\n        /* \"#utility.yul\":3616:3626   */\n      dup1\n        /* \"#utility.yul\":3612:3614   */\n      0x40\n        /* \"#utility.yul\":3605:3627   */\n      mstore\n        /* \"#utility.yul\":3395:3633   */\n      pop\n        /* \"#utility.yul\":3352:3633   */\n      pop\n      pop\n      jump\t// out\n        /* \"#utility.yul\":3639:3768   */\n    tag_74:\n        /* \"#utility.yul\":3673:3679   */\n      0x00\n        /* \"#utility.yul\":3700:3720   */\n      tag_138\n      tag_58\n      jump\t// in\n    tag_138:\n        /* \"#utility.yul\":3690:3720   */\n      swap1\n      pop\n        /* \"#utility.yul\":3729:3762   */\n      tag_139\n        /* \"#utility.yul\":3757:3761   */\n      dup3\n        /* \"#utility.yul\":3749:3755   */\n      dup3\n        /* \"#utility.yul\":3729:3762   */\n      tag_73\n      jump\t// in\n    tag_139:\n        /* \"#utility.yul\":3639:3768   */\n      swap2\n      swap1\n      pop\n      jump\t// out\n        /* \"#utility.yul\":3774:4082   */\n    tag_75:\n        /* \"#utility.yul\":3836:3840   */\n      0x00\n        /* \"#utility.yul\":3926:3944   */\n      0xffffffffffffffff\n        /* \"#utility.yul\":3918:3924   */\n      dup3\n        /* \"#utility.yul\":3915:3945   */\n      gt\n        /* \"#utility.yul\":3912:3968   */\n      iszero\n      tag_141\n      jumpi\n        /* \"#utility.yul\":3948:3966   */\n      tag_142\n      tag_72\n      jump\t// in\n    tag_142:\n        /* \"#utility.yul\":3912:3968   */\n    tag_141:\n        /* \"#utility.yul\":3986:4015   */\n      tag_143\n        /* \"#utility.yul\":4008:4014   */\n      dup3\n        /* \"#utility.yul\":3986:4015   */\n      tag_67\n      jump\t// in\n    tag_143:\n        /* \"#utility.yul\":3978:4015   */\n      swap1\n      pop\n        /* \"#utility.yul\":4070:4074   */\n      0x20\n        /* \"#utility.yul\":4064:4068   */\n      dup2\n        /* \"#utility.yul\":4060:4075   */\n      add\n        /* \"#utility.yul\":4052:4075   */\n      swap1\n      pop\n        /* \"#utility.yul\":3774:4082   */\n      swap2\n      swap1\n      pop\n      jump\t// out\n        /* \"#utility.yul\":4088:4234   */\n    tag_76:\n        /* \"#utility.yul\":4185:4191   */\n      dup3\n        /* \"#utility.yul\":4180:4183   */\n      dup2\n        /* \"#utility.yul\":4175:4178   */\n      dup4\n        /* \"#utility.yul\":4162:4192   */\n      calldatacopy\n        /* \"#utility.yul\":4226:4227   */\n      0x00\n        /* \"#utility.yul\":4217:4223   */\n      dup4\n        /* \"#utility.yul\":4212:4215   */\n      dup4\n        /* \"#utility.yul\":4208:4224   */\n      add\n        /* \"#utility.yul\":4201:4228   */\n      mstore\n        /* \"#utility.yul\":4088:4234   */\n      pop\n      pop\n      pop\n      jump\t// out\n        /* \"#utility.yul\":4240:4665   */\n    tag_77:\n        /* \"#utility.yul\":4318:4323   */\n      0x00\n        /* \"#utility.yul\":4343:4409   */\n      tag_146\n        /* \"#utility.yul\":4359:4408   */\n      tag_147\n        /* \"#utility.yul\":4401:4407   */\n      dup5\n        /* \"#utility.yul\":4359:4408   */\n      tag_75\n      jump\t// in\n    tag_147:\n        /* \"#utility.yul\":4343:4409   */\n      tag_74\n      jump\t// in\n    tag_146:\n        /* \"#utility.yul\":4334:4409   */\n      swap1\n      pop\n        /* \"#utility.yul\":4432:4438   */\n      dup3\n        /* \"#utility.yul\":4425:4430   */\n      dup2\n        /* \"#utility.yul\":4418:4439   */\n      mstore\n        /* \"#utility.yul\":4470:4474   */\n      0x20\n        /* \"#utility.yul\":4463:4468   */\n      dup2\n        /* \"#utility.yul\":4459:4475   */\n      add\n        /* \"#utility.yul\":4508:4511   */\n      dup5\n        /* \"#utility.yul\":4499:4505   */\n      dup5\n        /* \"#utility.yul\":4494:4497   */\n      dup5\n        /* \"#utility.yul\":4490:4506   */\n      add\n        /* \"#utility.yul\":4487:4512   */\n      gt\n        /* \"#utility.yul\":4484:4596   */\n      iszero\n      tag_148\n      jumpi\n        /* \"#utility.yul\":4515:4594   */\n      tag_149\n      tag_71\n      jump\t// in\n    tag_149:\n        /* \"#utility.yul\":4484:4596   */\n    tag_148:\n        /* \"#utility.yul\":4605:4659   */\n      tag_150\n        /* \"#utility.yul\":4652:4658   */\n      dup5\n        /* \"#utility.yul\":4647:4650   */\n      dup3\n        /* \"#utility.yul\":4642:4645   */\n      dup6\n        /* \"#utility.yul\":4605:4659   */\n      tag_76\n      jump\t// in\n    tag_150:\n        /* \"#utility.yul\":4324:4665   */\n      pop\n        /* \"#utility.yul\":4240:4665   */\n      swap4\n      swap3\n      pop\n      pop\n      pop\n      jump\t// out\n        /* \"#utility.yul\":4685:5025   */\n    tag_78:\n        /* \"#utility.yul\":4741:4746   */\n      0x00\n        /* \"#utility.yul\":4790:4793   */\n      dup3\n        /* \"#utility.yul\":4783:4787   */\n      0x1f\n        /* \"#utility.yul\":4775:4781   */\n      dup4\n        /* \"#utility.yul\":4771:4788   */\n      add\n        /* \"#utility.yul\":4767:4794   */\n      slt\n        /* \"#utility.yul\":4757:4879   */\n      tag_152\n      jumpi\n        /* \"#utility.yul\":4798:4877   */\n      tag_153\n      tag_70\n      jump\t// in\n    tag_153:\n        /* \"#utility.yul\":4757:4879   */\n    tag_152:\n        /* \"#utility.yul\":4915:4921   */\n      dup2\n        /* \"#utility.yul\":4902:4922   */\n      calldataload\n        /* \"#utility.yul\":4940:5019   */\n      tag_154\n        /* \"#utility.yul\":5015:5018   */\n      dup5\n        /* \"#utility.yul\":5007:5013   */\n      dup3\n        /* \"#utility.yul\":5000:5004   */\n      0x20\n        /* \"#utility.yul\":4992:4998   */\n      dup7\n        /* \"#utility.yul\":4988:5005   */\n      add\n        /* \"#utility.yul\":4940:5019   */\n      tag_77\n      jump\t// in\n    tag_154:\n        /* \"#utility.yul\":4931:5019   */\n      swap2\n      pop\n        /* \"#utility.yul\":4747:5025   */\n      pop\n        /* \"#utility.yul\":4685:5025   */\n      swap3\n      swap2\n      pop\n      pop\n      jump\t// out\n        /* \"#utility.yul\":5031:5540   */\n    tag_22:\n        /* \"#utility.yul\":5100:5106   */\n      0x00\n        /* \"#utility.yul\":5149:5151   */\n      0x20\n        /* \"#utility.yul\":5137:5146   */\n      dup3\n        /* \"#utility.yul\":5128:5135   */\n      dup5\n        /* \"#utility.yul\":5124:5147   */\n      sub\n        /* \"#utility.yul\":5120:5152   */\n      slt\n        /* \"#utility.yul\":5117:5236   */\n      iszero\n      tag_156\n      jumpi\n        /* \"#utility.yul\":5155:5234   */\n      tag_157\n      tag_59\n      jump\t// in\n    tag_157:\n        /* \"#utility.yul\":5117:5236   */\n    tag_156:\n        /* \"#utility.yul\":5303:5304   */\n      0x00\n        /* \"#utility.yul\":5292:5301   */\n      dup3\n        /* \"#utility.yul\":5288:5305   */\n      add\n        /* \"#utility.yul\":5275:5306   */\n      calldataload\n        /* \"#utility.yul\":5333:5351   */\n      0xffffffffffffffff\n        /* \"#utility.yul\":5325:5331   */\n      dup2\n        /* \"#utility.yul\":5322:5352   */\n      gt\n        /* \"#utility.yul\":5319:5436   */\n      iszero\n      tag_158\n      jumpi\n        /* \"#utility.yul\":5355:5434   */\n      tag_159\n      tag_60\n      jump\t// in\n    tag_159:\n        /* \"#utility.yul\":5319:5436   */\n    tag_158:\n        /* \"#utility.yul\":5460:5523   */\n      tag_160\n        /* \"#utility.yul\":5515:5522   */\n      dup5\n        /* \"#utility.yul\":5506:5512   */\n      dup3\n        /* \"#utility.yul\":5495:5504   */\n      dup6\n        /* \"#utility.yul\":5491:5513   */\n      add\n        /* \"#utility.yul\":5460:5523   */\n      tag_78\n      jump\t// in\n    tag_160:\n        /* \"#utility.yul\":5450:5523   */\n      swap2\n      pop\n        /* \"#utility.yul\":5246:5533   */\n      pop\n        /* \"#utility.yul\":5031:5540   */\n      swap3\n      swap2\n      pop\n      pop\n      jump\t// out\n        /* \"#utility.yul\":5546:5768   */\n    tag_25:\n        /* \"#utility.yul\":5639:5643   */\n      0x00\n        /* \"#utility.yul\":5677:5679   */\n      0x20\n        /* \"#utility.yul\":5666:5675   */\n      dup3\n        /* \"#utility.yul\":5662:5680   */\n      add\n        /* \"#utility.yul\":5654:5680   */\n      swap1\n      pop\n        /* \"#utility.yul\":5690:5761   */\n      tag_162\n        /* \"#utility.yul\":5758:5759   */\n      0x00\n        /* \"#utility.yul\":5747:5756   */\n      dup4\n        /* \"#utility.yul\":5743:5760   */\n      add\n        /* \"#utility.yul\":5734:5740   */\n      dup5\n        /* \"#utility.yul\":5690:5761   */\n      tag_69\n      jump\t// in\n    tag_162:\n        /* \"#utility.yul\":5546:5768   */\n      swap3\n      swap2\n      pop\n      pop\n      jump\t// out\n        /* \"#utility.yul\":5774:6428   */\n    tag_34:\n        /* \"#utility.yul\":5852:5858   */\n      0x00\n        /* \"#utility.yul\":5860:5866   */\n      dup1\n        /* \"#utility.yul\":5909:5911   */\n      0x40\n        /* \"#utility.yul\":5897:5906   */\n      dup4\n        /* \"#utility.yul\":5888:5895   */\n      dup6\n        /* \"#utility.yul\":5884:5907   */\n      sub\n        /* \"#utility.yul\":5880:5912   */\n      slt\n        /* \"#utility.yul\":5877:5996   */\n      iszero\n      tag_164\n      jumpi\n        /* \"#utility.yul\":5915:5994   */\n      tag_165\n      tag_59\n      jump\t// in\n    tag_165:\n        /* \"#utility.yul\":5877:5996   */\n    tag_164:\n        /* \"#utility.yul\":6063:6064   */\n      0x00\n        /* \"#utility.yul\":6052:6061   */\n      dup4\n        /* \"#utility.yul\":6048:6065   */\n      add\n        /* \"#utility.yul\":6035:6066   */\n      calldataload\n        /* \"#utility.yul\":6093:6111   */\n      0xffffffffffffffff\n        /* \"#utility.yul\":6085:6091   */\n      dup2\n        /* \"#utility.yul\":6082:6112   */\n      gt\n        /* \"#utility.yul\":6079:6196   */\n      iszero\n      tag_166\n      jumpi\n        /* \"#utility.yul\":6115:6194   */\n      tag_167\n      tag_60\n      jump\t// in\n    tag_167:\n        /* \"#utility.yul\":6079:6196   */\n    tag_166:\n        /* \"#utility.yul\":6220:6283   */\n      tag_168\n        /* \"#utility.yul\":6275:6282   */\n      dup6\n        /* \"#utility.yul\":6266:6272   */\n      dup3\n        /* \"#utility.yul\":6255:6264   */\n      dup7\n        /* \"#utility.yul\":6251:6273   */\n      add\n        /* \"#utility.yul\":6220:6283   */\n      tag_78\n      jump\t// in\n    tag_168:\n        /* \"#utility.yul\":6210:6283   */\n      swap3\n      pop\n        /* \"#utility.yul\":6006:6293   */\n      pop\n        /* \"#utility.yul\":6332:6334   */\n      0x20\n        /* \"#utility.yul\":6358:6411   */\n      tag_169\n        /* \"#utility.yul\":6403:6410   */\n      dup6\n        /* \"#utility.yul\":6394:6400   */\n      dup3\n        /* \"#utility.yul\":6383:6392   */\n      dup7\n        /* \"#utility.yul\":6379:6401   */\n      add\n        /* \"#utility.yul\":6358:6411   */\n      tag_63\n      jump\t// in\n    tag_169:\n        /* \"#utility.yul\":6348:6411   */\n      swap2\n      pop\n        /* \"#utility.yul\":6303:6421   */\n      pop\n        /* \"#utility.yul\":5774:6428   */\n      swap3\n      pop\n      swap3\n      swap1\n      pop\n      jump\t// out\n        /* \"#utility.yul\":6434:6614   */\n    tag_79:\n        /* \"#utility.yul\":6482:6559   */\n      0x4e487b7100000000000000000000000000000000000000000000000000000000\n        /* \"#utility.yul\":6479:6480   */\n      0x00\n        /* \"#utility.yul\":6472:6560   */\n      mstore\n        /* \"#utility.yul\":6579:6583   */\n      0x22\n        /* \"#utility.yul\":6576:6577   */\n      0x04\n        /* \"#utility.yul\":6569:6584   */\n      mstore\n        /* \"#utility.yul\":6603:6607   */\n      0x24\n        /* \"#utility.yul\":6600:6601   */\n      0x00\n        /* \"#utility.yul\":6593:6608   */\n      revert\n        /* \"#utility.yul\":6620:6940   */\n    tag_37:\n        /* \"#utility.yul\":6664:6670   */\n      0x00\n        /* \"#utility.yul\":6701:6702   */\n      0x02\n        /* \"#utility.yul\":6695:6699   */\n      dup3\n        /* \"#utility.yul\":6691:6703   */\n      div\n        /* \"#utility.yul\":6681:6703   */\n      swap1\n      pop\n        /* \"#utility.yul\":6748:6749   */\n      0x01\n        /* \"#utility.yul\":6742:6746   */\n      dup3\n        /* \"#utility.yul\":6738:6750   */\n      and\n        /* \"#utility.yul\":6769:6787   */\n      dup1\n        /* \"#utility.yul\":6759:6840   */\n      tag_172\n      jumpi\n        /* \"#utility.yul\":6825:6829   */\n      0x7f\n        /* \"#utility.yul\":6817:6823   */\n      dup3\n        /* \"#utility.yul\":6813:6830   */\n      and\n        /* \"#utility.yul\":6803:6830   */\n      swap2\n      pop\n        /* \"#utility.yul\":6759:6840   */\n    tag_172:\n        /* \"#utility.yul\":6887:6889   */\n      0x20\n        /* \"#utility.yul\":6879:6885   */\n      dup3\n        /* \"#utility.yul\":6876:6890   */\n      lt\n        /* \"#utility.yul\":6856:6874   */\n      dup2\n        /* \"#utility.yul\":6853:6891   */\n      sub\n        /* \"#utility.yul\":6850:6934   */\n      tag_173\n      jumpi\n        /* \"#utility.yul\":6906:6924   */\n      tag_174\n      tag_79\n      jump\t// in\n    tag_174:\n        /* \"#utility.yul\":6850:6934   */\n    tag_173:\n        /* \"#utility.yul\":6671:6940   */\n      pop\n        /* \"#utility.yul\":6620:6940   */\n      swap2\n      swap1\n      pop\n      jump\t// out\n        /* \"#utility.yul\":6946:7087   */\n    tag_80:\n        /* \"#utility.yul\":6995:6999   */\n      0x00\n        /* \"#utility.yul\":7018:7021   */\n      dup2\n        /* \"#utility.yul\":7010:7021   */\n      swap1\n      pop\n        /* \"#utility.yul\":7041:7044   */\n      dup2\n        /* \"#utility.yul\":7038:7039   */\n      0x00\n        /* \"#utility.yul\":7031:7045   */\n      mstore\n        /* \"#utility.yul\":7075:7079   */\n      0x20\n        /* \"#utility.yul\":7072:7073   */\n      0x00\n        /* \"#utility.yul\":7062:7080   */\n      keccak256\n        /* \"#utility.yul\":7054:7080   */\n      swap1\n      pop\n        /* \"#utility.yul\":6946:7087   */\n      swap2\n      swap1\n      pop\n      jump\t// out\n        /* \"#utility.yul\":7093:7186   */\n    tag_81:\n        /* \"#utility.yul\":7130:7136   */\n      0x00\n        /* \"#utility.yul\":7177:7179   */\n      0x20\n        /* \"#utility.yul\":7172:7174   */\n      0x1f\n        /* \"#utility.yul\":7165:7170   */\n      dup4\n        /* \"#utility.yul\":7161:7175   */\n      add\n        /* \"#utility.yul\":7157:7180   */\n      div\n        /* \"#utility.yul\":7147:7180   */\n      swap1\n      pop\n        /* \"#utility.yul\":7093:7186   */\n      swap2\n      swap1\n      pop\n      jump\t// out\n        /* \"#utility.yul\":7192:7299   */\n    tag_82:\n        /* \"#utility.yul\":7236:7244   */\n      0x00\n        /* \"#utility.yul\":7286:7291   */\n      dup3\n        /* \"#utility.yul\":7280:7284   */\n      dup3\n        /* \"#utility.yul\":7276:7292   */\n      shl\n        /* \"#utility.yul\":7255:7292   */\n      swap1\n      pop\n        /* \"#utility.yul\":7192:7299   */\n      swap3\n      swap2\n      pop\n      pop\n      jump\t// out\n        /* \"#utility.yul\":7305:7698   */\n    tag_83:\n        /* \"#utility.yul\":7374:7380   */\n      0x00\n        /* \"#utility.yul\":7424:7425   */\n      0x08\n        /* \"#utility.yul\":7412:7422   */\n      dup4\n        /* \"#utility.yul\":7408:7426   */\n      mul\n        /* \"#utility.yul\":7447:7544   */\n      tag_179\n        /* \"#utility.yul\":7477:7543   */\n      0xffffffffffffffffffffffffffffffffffffffffffffffffffffffffffffffff\n        /* \"#utility.yul\":7466:7475   */\n      dup3\n        /* \"#utility.yul\":7447:7544   */\n      tag_82\n      jump\t// in\n    tag_179:\n        /* \"#utility.yul\":7565:7604   */\n      tag_180\n        /* \"#utility.yul\":7595:7603   */\n      dup7\n        /* \"#utility.yul\":7584:7593   */\n      dup4\n        /* \"#utility.yul\":7565:7604   */\n      tag_82\n      jump\t// in\n    tag_180:\n        /* \"#utility.yul\":7553:7604   */\n      swap6\n      pop\n        /* \"#utility.yul\":7637:7641   */\n      dup1\n        /* \"#utility.yul\":7633:7642   */\n      not\n        /* \"#utility.yul\":7626:7631   */\n      dup5\n        /* \"#utility.yul\":7622:7643   */\n      and\n        /* \"#utility.yul\":7613:7643   */\n      swap4\n      pop\n        /* \"#utility.yul\":7686:7690   */\n      dup1\n        /* \"#utility.yul\":7676:7684   */\n      dup7\n        /* \"#utility.yul\":7672:7691   */\n      and\n        /* \"#utility.yul\":7665:7670   */\n      dup5\n        /* \"#utility.yul\":7662:7692   */\n      or\n        /* \"#utility.yul\":7652:7692   */\n      swap3\n      pop\n        /* \"#utility.yul\":7381:7698   */\n      pop\n      pop\n        /* \"#utility.yul\":7305:7698   */\n      swap4\n      swap3\n      pop\n      pop\n      pop\n      jump\t// out\n        /* \"#utility.yul\":7704:7764   */\n    tag_84:\n        /* \"#utility.yul\":7732:7735   */\n      0x00\n        /* \"#utility.yul\":7753:7758   */\n      dup2\n        /* \"#utility.yul\":7746:7758   */\n      swap1\n      pop\n        /* \"#utility.yul\":7704:7764   */\n      swap2\n      swap1\n      pop\n      jump\t// out\n        /* \"#utility.yul\":7770:7912   */\n    tag_85:\n        /* \"#utility.yul\":7820:7829   */\n      0x00\n        /* \"#utility.yul\":7853:7906   */\n      tag_183\n        /* \"#utility.yul\":7871:7905   */\n      tag_184\n        /* \"#utility.yul\":7880:7904   */\n      tag_185\n        /* \"#utility.yul\":7898:7903   */\n      dup5\n        /* \"#utility.yul\":7880:7904   */\n      tag_61\n      jump\t// in\n    tag_185:\n        /* \"#utility.yul\":7871:7905   */\n      tag_84\n      jump\t// in\n    tag_184:\n        /* \"#utility.yul\":7853:7906   */\n      tag_61\n      jump\t// in\n    tag_183:\n        /* \"#utility.yul\":7840:7906   */\n      swap1\n      pop\n        /* \"#utility.yul\":7770:7912   */\n      swap2\n      swap1\n      pop\n      jump\t// out\n        /* \"#utility.yul\":7918:7993   */\n    tag_86:\n        /* \"#utility.yul\":7961:7964   */\n      0x00\n        /* \"#utility.yul\":7982:7987   */\n      dup2\n        /* \"#utility.yul\":7975:7987   */\n      swap1\n      pop\n        /* \"#utility.yul\":7918:7993   */\n      swap2\n      swap1\n      pop\n      jump\t// out\n        /* \"#utility.yul\":7999:8268   */\n    tag_87:\n        /* \"#utility.yul\":8109:8148   */\n      tag_188\n        /* \"#utility.yul\":8140:8147   */\n      dup4\n        /* \"#utility.yul\":8109:8148   */\n      tag_85\n      jump\t// in\n    tag_188:\n        /* \"#utility.yul\":8170:8261   */\n      tag_189\n        /* \"#utility.yul\":8219:8260   */\n      tag_190\n        /* \"#utility.yul\":8243:8259   */\n      dup3\n        /* \"#utility.yul\":8219:8260   */\n      tag_86\n      jump\t// in\n    tag_190:\n        /* \"#utility.yul\":8211:8217   */\n      dup5\n        /* \"#utility.yul\":8204:8208   */\n      dup5\n        /* \"#utility.yul\":8198:8209   */\n      sload\n        /* \"#utility.yul\":8170:8261   */\n      tag_83\n      jump\t// in\n    tag_189:\n        /* \"#utility.yul\":8164:8168   */\n      dup3\n        /* \"#utility.yul\":8157:8262   */\n      sstore\n        /* \"#utility.yul\":8075:8268   */\n      pop\n        /* \"#utility.yul\":7999:8268   */\n      pop\n      pop\n      pop\n      jump\t// out\n        /* \"#utility.yul\":8274:8347   */\n    tag_88:\n        /* \"#utility.yul\":8319:8322   */\n      0x00\n        /* \"#utility.yul\":8274:8347   */\n      swap1\n      jump\t// out\n        /* \"#utility.yul\":8353:8542   */\n    tag_89:\n        /* \"#utility.yul\":8430:8462   */\n      tag_193\n      tag_88\n      jump\t// in\n    tag_193:\n        /* \"#utility.yul\":8471:8536   */\n      tag_194\n        /* \"#utility.yul\":8529:8535   */\n      dup2\n        /* \"#utility.yul\":8521:8527   */\n      dup5\n        /* \"#utility.yul\":8515:8519   */\n      dup5\n        /* \"#utility.yul\":8471:8536   */\n      tag_87\n      jump\t// in\n    tag_194:\n        /* \"#utility.yul\":8406:8542   */\n      pop\n        /* \"#utility.yul\":8353:8542   */\n      pop\n      pop\n      jump\t// out\n        /* \"#utility.yul\":8548:8734   */\n    tag_90:\n        /* \"#utility.yul\":8608:8728   */\n    tag_196:\n        /* \"#utility.yul\":8625:8628   */\n      dup2\n        /* \"#utility.yul\":8618:8623   */\n      dup2\n        /* \"#utility.yul\":8615:8629   */\n      lt\n        /* \"#utility.yul\":8608:8728   */\n      iszero\n      tag_198\n      jumpi\n        /* \"#utility.yul\":8679:8718   */\n      tag_199\n        /* \"#utility.yul\":8716:8717   */\n      0x00\n        /* \"#utility.yul\":8709:8714   */\n      dup3\n        /* \"#utility.yul\":8679:8718   */\n      tag_89\n      jump\t// in\n    tag_199:\n        /* \"#utility.yul\":8652:8653   */\n      0x01\n        /* \"#utility.yul\":8645:8650   */\n      dup2\n        /* \"#utility.yul\":8641:8654   */\n      add\n        /* \"#utility.yul\":8632:8654   */\n      swap1\n      pop\n        /* \"#utility.yul\":8608:8728   */\n      jump(tag_196)\n    tag_198:\n        /* \"#utility.yul\":8548:8734   */\n      pop\n      pop\n      jump\t// out\n        /* \"#utility.yul\":8740:9283   */\n    tag_91:\n        /* \"#utility.yul\":8841:8843   */\n      0x1f\n        /* \"#utility.yul\":8836:8839   */\n      dup3\n        /* \"#utility.yul\":8833:8844   */\n      gt\n        /* \"#utility.yul\":8830:9276   */\n      iszero\n      tag_201\n      jumpi\n        /* \"#utility.yul\":8875:8913   */\n      tag_202\n        /* \"#utility.yul\":8907:8912   */\n      dup2\n        /* \"#utility.yul\":8875:8913   */\n      tag_80\n      jump\t// in\n    tag_202:\n        /* \"#utility.yul\":8959:8988   */\n      tag_203\n        /* \"#utility.yul\":8977:8987   */\n      dup5\n        /* \"#utility.yul\":8959:8988   */\n      tag_81\n      jump\t// in\n    tag_203:\n        /* \"#utility.yul\":8949:8957   */\n      dup2\n        /* \"#utility.yul\":8945:8989   */\n      add\n        /* \"#utility.yul\":9142:9144   */\n      0x20\n        /* \"#utility.yul\":9130:9140   */\n      dup6\n        /* \"#utility.yul\":9127:9145   */\n      lt\n        /* \"#utility.yul\":9124:9173   */\n      iszero\n      tag_204\n      jumpi\n        /* \"#utility.yul\":9163:9171   */\n      dup2\n        /* \"#utility.yul\":9148:9171   */\n      swap1\n      pop\n        /* \"#utility.yul\":9124:9173   */\n    tag_204:\n        /* \"#utility.yul\":9186:9266   */\n      tag_205\n        /* \"#utility.yul\":9242:9264   */\n      tag_206\n        /* \"#utility.yul\":9260:9263   */\n      dup6\n        /* \"#utility.yul\":9242:9264   */\n      tag_81\n      jump\t// in\n    tag_206:\n        /* \"#utility.yul\":9232:9240   */\n      dup4\n        /* \"#utility.yul\":9228:9265   */\n      add\n        /* \"#utility.yul\":9215:9226   */\n      dup3\n        /* \"#utility.yul\":9186:9266   */\n      tag_90\n      jump\t// in\n    tag_205:\n        /* \"#utility.yul\":8845:9276   */\n      pop\n      pop\n        /* \"#utility.yul\":8830:9276   */\n    tag_201:\n        /* \"#utility.yul\":8740:9283   */\n      pop\n      pop\n      pop\n      jump\t// out\n        /* \"#utility.yul\":9289:9406   */\n    tag_92:\n        /* \"#utility.yul\":9343:9351   */\n      0x00\n        /* \"#utility.yul\":9393:9398   */\n      dup3\n        /* \"#utility.yul\":9387:9391   */\n      dup3\n        /* \"#utility.yul\":9383:9399   */\n      shr\n        /* \"#utility.yul\":9362:9399   */\n      swap1\n      pop\n        /* \"#utility.yul\":9289:9406   */\n      swap3\n      swap2\n      pop\n      pop\n      jump\t// out\n        /* \"#utility.yul\":9412:9581   */\n    tag_93:\n        /* \"#utility.yul\":9456:9462   */\n      0x00\n        /* \"#utility.yul\":9489:9540   */\n      tag_209\n        /* \"#utility.yul\":9537:9538   */\n      0x00\n        /* \"#utility.yul\":9533:9539   */\n      not\n        /* \"#utility.yul\":9525:9530   */\n      dup5\n        /* \"#utility.yul\":9522:9523   */\n      0x08\n        /* \"#utility.yul\":9518:9531   */\n      mul\n        /* \"#utility.yul\":9489:9540   */\n      tag_92\n      jump\t// in\n    tag_209:\n        /* \"#utility.yul\":9485:9541   */\n      not\n        /* \"#utility.yul\":9570:9574   */\n      dup1\n        /* \"#utility.yul\":9564:9568   */\n      dup4\n        /* \"#utility.yul\":9560:9575   */\n      and\n        /* \"#utility.yul\":9550:9575   */\n      swap2\n      pop\n        /* \"#utility.yul\":9463:9581   */\n      pop\n        /* \"#utility.yul\":9412:9581   */\n      swap3\n      swap2\n      pop\n      pop\n      jump\t// out\n        /* \"#utility.yul\":9586:9881   */\n    tag_94:\n        /* \"#utility.yul\":9662:9666   */\n      0x00\n        /* \"#utility.yul\":9808:9837   */\n      tag_211\n        /* \"#utility.yul\":9833:9836   */\n      dup4\n        /* \"#utility.yul\":9827:9831   */\n      dup4\n        /* \"#utility.yul\":9808:9837   */\n      tag_93\n      jump\t// in\n    tag_211:\n        /* \"#utility.yul\":9800:9837   */\n      swap2\n      pop\n        /* \"#utility.yul\":9870:9873   */\n      dup3\n        /* \"#utility.yul\":9867:9868   */\n      0x02\n        /* \"#utility.yul\":9863:9874   */\n      mul\n        /* \"#utility.yul\":9857:9861   */\n      dup3\n        /* \"#utility.yul\":9854:9875   */\n      or\n        /* \"#utility.yul\":9846:9875   */\n      swap1\n      pop\n        /* \"#utility.yul\":9586:9881   */\n      swap3\n      swap2\n      pop\n      pop\n      jump\t// out\n        /* \"#utility.yul\":9886:11281   */\n    tag_54:\n        /* \"#utility.yul\":10003:10040   */\n      tag_213\n        /* \"#utility.yul\":10036:10039   */\n      dup3\n        /* \"#utility.yul\":10003:10040   */\n      tag_64\n      jump\t// in\n    tag_213:\n        /* \"#utility.yul\":10105:10123   */\n      0xffffffffffffffff\n        /* \"#utility.yul\":10097:10103   */\n      dup2\n        /* \"#utility.yul\":10094:10124   */\n      gt\n        /* \"#utility.yul\":10091:10147   */\n      iszero\n      tag_214\n      jumpi\n        /* \"#utility.yul\":10127:10145   */\n      tag_215\n      tag_72\n      jump\t// in\n    tag_215:\n        /* \"#utility.yul\":10091:10147   */\n    tag_214:\n        /* \"#utility.yul\":10171:10209   */\n      tag_216\n        /* \"#utility.yul\":10203:10207   */\n      dup3\n        /* \"#utility.yul\":10197:10208   */\n      sload\n        /* \"#utility.yul\":10171:10209   */\n      tag_37\n      jump\t// in\n    tag_216:\n        /* \"#utility.yul\":10256:10323   */\n      tag_217\n        /* \"#utility.yul\":10316:10322   */\n      dup3\n        /* \"#utility.yul\":10308:10314   */\n      dup3\n        /* \"#utility.yul\":10302:10306   */\n      dup6\n        /* \"#utility.yul\":10256:10323   */\n      tag_91\n      jump\t// in\n    tag_217:\n        /* \"#utility.yul\":10350:10351   */\n      0x00\n        /* \"#utility.yul\":10374:10378   */\n      0x20\n        /* \"#utility.yul\":10361:10378   */\n      swap1\n      pop\n        /* \"#utility.yul\":10406:10408   */\n      0x1f\n        /* \"#utility.yul\":10398:10404   */\n      dup4\n        /* \"#utility.yul\":10395:10409   */\n      gt\n        /* \"#utility.yul\":10423:10424   */\n      0x01\n        /* \"#utility.yul\":10418:11036   */\n      dup2\n      eq\n      tag_219\n      jumpi\n        /* \"#utility.yul\":11080:11081   */\n      0x00\n        /* \"#utility.yul\":11097:11103   */\n      dup5\n        /* \"#utility.yul\":11094:11171   */\n      iszero\n      tag_220\n      jumpi\n        /* \"#utility.yul\":11146:11155   */\n      dup3\n        /* \"#utility.yul\":11141:11144   */\n      dup8\n        /* \"#utility.yul\":11137:11156   */\n      add\n        /* \"#utility.yul\":11131:11157   */\n      mload\n        /* \"#utility.yul\":11122:11157   */\n      swap1\n      pop\n        /* \"#utility.yul\":11094:11171   */\n    tag_220:\n        /* \"#utility.yul\":11197:11264   */\n      tag_221\n        /* \"#utility.yul\":11257:11263   */\n      dup6\n        /* \"#utility.yul\":11250:11255   */\n      dup3\n        /* \"#utility.yul\":11197:11264   */\n      tag_94\n      jump\t// in\n    tag_221:\n        /* \"#utility.yul\":11191:11195   */\n      dup7\n        /* \"#utility.yul\":11184:11265   */\n      sstore\n        /* \"#utility.yul\":11053:11275   */\n      pop\n        /* \"#utility.yul\":10388:11275   */\n      jump(tag_218)\n        /* \"#utility.yul\":10418:11036   */\n    tag_219:\n        /* \"#utility.yul\":10470:10474   */\n      0x1f\n        /* \"#utility.yul\":10466:10475   */\n      not\n        /* \"#utility.yul\":10458:10464   */\n      dup5\n        /* \"#utility.yul\":10454:10476   */\n      and\n        /* \"#utility.yul\":10504:10541   */\n      tag_222\n        /* \"#utility.yul\":10536:10540   */\n      dup7\n        /* \"#utility.yul\":10504:10541   */\n      tag_80\n      jump\t// in\n    tag_222:\n        /* \"#utility.yul\":10563:10564   */\n      0x00\n        /* \"#utility.yul\":10577:10785   */\n    tag_223:\n        /* \"#utility.yul\":10591:10598   */\n      dup3\n        /* \"#utility.yul\":10588:10589   */\n      dup2\n        /* \"#utility.yul\":10585:10599   */\n      lt\n        /* \"#utility.yul\":10577:10785   */\n      iszero\n      tag_225\n      jumpi\n        /* \"#utility.yul\":10670:10679   */\n      dup5\n        /* \"#utility.yul\":10665:10668   */\n      dup10\n        /* \"#utility.yul\":10661:10680   */\n      add\n        /* \"#utility.yul\":10655:10681   */\n      mload\n        /* \"#utility.yul\":10647:10653   */\n      dup3\n        /* \"#utility.yul\":10640:10682   */\n      sstore\n        /* \"#utility.yul\":10721:10722   */\n      0x01\n        /* \"#utility.yul\":10713:10719   */\n      dup3\n        /* \"#utility.yul\":10709:10723   */\n      add\n        /* \"#utility.yul\":10699:10723   */\n      swap2\n      pop\n        /* \"#utility.yul\":10768:10770   */\n      0x20\n        /* \"#utility.yul\":10757:10766   */\n      dup6\n        /* \"#utility.yul\":10753:10771   */\n      add\n        /* \"#utility.yul\":10740:10771   */\n      swap5\n      pop\n        /* \"#utility.yul\":10614:10618   */\n      0x20\n        /* \"#utility.yul\":10611:10612   */\n      dup2\n        /* \"#utility.yul\":10607:10619   */\n      add\n        /* \"#utility.yul\":10602:10619   */\n      swap1\n      pop\n        /* \"#utility.yul\":10577:10785   */\n      jump(tag_223)\n    tag_225:\n        /* \"#utility.yul\":10813:10819   */\n      dup7\n        /* \"#utility.yul\":10804:10811   */\n      dup4\n        /* \"#utility.yul\":10801:10820   */\n      lt\n        /* \"#utility.yul\":10798:10977   */\n      iszero\n      tag_226\n      jumpi\n        /* \"#utility.yul\":10871:10880   */\n      dup5\n        /* \"#utility.yul\":10866:10869   */\n      dup10\n        /* \"#utility.yul\":10862:10881   */\n      add\n        /* \"#utility.yul\":10856:10882   */\n      mload\n        /* \"#utility.yul\":10914:10962   */\n      tag_227\n        /* \"#utility.yul\":10956:10960   */\n      0x1f\n        /* \"#utility.yul\":10948:10954   */\n      dup10\n        /* \"#utility.yul\":10944:10961   */\n      and\n        /* \"#utility.yul\":10933:10942   */\n      dup3\n        /* \"#utility.yul\":10914:10962   */\n      tag_93\n      jump\t// in\n    tag_227:\n        /* \"#utility.yul\":10906:10912   */\n      dup4\n        /* \"#utility.yul\":10899:10963   */\n      sstore\n        /* \"#utility.yul\":10821:10977   */\n      pop\n        /* \"#utility.yul\":10798:10977   */\n    tag_226:\n        /* \"#utility.yul\":11023:11024   */\n      0x01\n        /* \"#utility.yul\":11019:11020   */\n      0x02\n        /* \"#utility.yul\":11011:11017   */\n      dup9\n        /* \"#utility.yul\":11007:11021   */\n      mul\n        /* \"#utility.yul\":11003:11025   */\n      add\n        /* \"#utility.yul\":10997:11001   */\n      dup9\n        /* \"#utility.yul\":10990:11026   */\n      sstore\n        /* \"#utility.yul\":10425:11036   */\n      pop\n      pop\n      pop\n        /* \"#utility.yul\":10388:11275   */\n    tag_218:\n      pop\n        /* \"#utility.yul\":9978:11281   */\n      pop\n      pop\n      pop\n        /* \"#utility.yul\":9886:11281   */\n      pop\n      pop\n      jump\t// out\n        /* \"#utility.yul\":11287:11435   */\n    tag_95:\n        /* \"#utility.yul\":11389:11400   */\n      0x00\n        /* \"#utility.yul\":11426:11429   */\n      dup2\n        /* \"#utility.yul\":11411:11429   */\n      swap1\n      pop\n        /* \"#utility.yul\":11287:11435   */\n      swap3\n      swap2\n      pop\n      pop\n      jump\t// out\n        /* \"#utility.yul\":11441:11831   */\n    tag_96:\n        /* \"#utility.yul\":11547:11550   */\n      0x00\n        /* \"#utility.yul\":11575:11614   */\n      tag_230\n        /* \"#utility.yul\":11608:11613   */\n      dup3\n        /* \"#utility.yul\":11575:11614   */\n      tag_64\n      jump\t// in\n    tag_230:\n        /* \"#utility.yul\":11630:11719   */\n      tag_231\n        /* \"#utility.yul\":11712:11718   */\n      dup2\n        /* \"#utility.yul\":11707:11710   */\n      dup6\n        /* \"#utility.yul\":11630:11719   */\n      tag_95\n      jump\t// in\n    tag_231:\n        /* \"#utility.yul\":11623:11719   */\n      swap4\n      pop\n        /* \"#utility.yul\":11728:11793   */\n      tag_232\n        /* \"#utility.yul\":11786:11792   */\n      dup2\n        /* \"#utility.yul\":11781:11784   */\n      dup6\n        /* \"#utility.yul\":11774:11778   */\n      0x20\n        /* \"#utility.yul\":11767:11772   */\n      dup7\n        /* \"#utility.yul\":11763:11779   */\n      add\n        /* \"#utility.yul\":11728:11793   */\n      tag_66\n      jump\t// in\n    tag_232:\n        /* \"#utility.yul\":11818:11824   */\n      dup1\n        /* \"#utility.yul\":11813:11816   */\n      dup5\n        /* \"#utility.yul\":11809:11825   */\n      add\n        /* \"#utility.yul\":11802:11825   */\n      swap2\n      pop\n        /* \"#utility.yul\":11551:11831   */\n      pop\n        /* \"#utility.yul\":11441:11831   */\n      swap3\n      swap2\n      pop\n      pop\n      jump\t// out\n        /* \"#utility.yul\":11837:12112   */\n    tag_56:\n        /* \"#utility.yul\":11969:11972   */\n      0x00\n        /* \"#utility.yul\":11991:12086   */\n      tag_234\n        /* \"#utility.yul\":12082:12085   */\n      dup3\n        /* \"#utility.yul\":12073:12079   */\n      dup5\n        /* \"#utility.yul\":11991:12086   */\n      tag_96\n      jump\t// in\n    tag_234:\n        /* \"#utility.yul\":11984:12086   */\n      swap2\n      pop\n        /* \"#utility.yul\":12103:12106   */\n      dup2\n        /* \"#utility.yul\":12096:12106   */\n      swap1\n      pop\n        /* \"#utility.yul\":11837:12112   */\n      swap3\n      swap2\n      pop\n      pop\n      jump\t// out\n\n    auxdata: 0xa2646970667358221220567ed040a22b1f5f048a192d99cf293dce15063c7ba08436d0643de6f135318864736f6c63430008130033\n}\n",
				"bytecode": {
					"linkReferences": {},
					"object": "608060405234801561001057600080fd5b50610a59806100206000396000f3fe608060405234801561001057600080fd5b50600436106100625760003560e01c80631f909971146100675780634de8667214610097578063649ceab8146100c85780637bc55ce1146100f8578063d3c1e0d914610114578063da9c2b6b14610132575b600080fd5b610081600480360381019061007c91906103df565b61014e565b60405161008e919061049c565b60405180910390f35b6100b160048036038101906100ac91906103df565b6101ee565b6040516100bf9291906104cd565b60405180910390f35b6100e260048036038101906100dd9190610632565b6102aa565b6040516100ef919061067b565b60405180910390f35b610112600480360381019061010d91906103df565b6102d8565b005b61011c6102e2565b604051610129919061067b565b60405180910390f35b61014c60048036038101906101479190610696565b6102eb565b005b6002602052806000526040600020600091509050805461016d90610721565b80601f016020809104026020016040519081016040528092919081815260200182805461019990610721565b80156101e65780601f106101bb576101008083540402835291602001916101e6565b820191906000526020600020905b8154815290600101906020018083116101c957829003601f168201915b505050505081565b600381815481106101fe57600080fd5b906000526020600020906002020160009150905080600001805461022190610721565b80601f016020809104026020016040519081016040528092919081815260200182805461024d90610721565b801561029a5780601f1061026f5761010080835404028352916020019161029a565b820191906000526020600020905b81548152906001019060200180831161027d57829003601f168201915b5050505050908060010154905082565b6001818051602081018201805184825260208301602085012081835280955050505050506000915090505481565b8060008190555050565b60008054905090565b60036040518060400160405280848152602001838152509080600181540180825580915050600190039060005260206000209060020201600090919091909150600082015181600001908161034091906108fe565b506020820151816001015550508060018360405161035e9190610a0c565b9081526020016040518091039020819055508160026000838152602001908152602001600020908161039091906108fe565b505050565b6000604051905090565b600080fd5b600080fd5b6000819050919050565b6103bc816103a9565b81146103c757600080fd5b50565b6000813590506103d9816103b3565b92915050565b6000602082840312156103f5576103f461039f565b5b6000610403848285016103ca565b91505092915050565b600081519050919050565b600082825260208201905092915050565b60005b8381101561044657808201518184015260208101905061042b565b60008484015250505050565b6000601f19601f8301169050919050565b600061046e8261040c565b6104788185610417565b9350610488818560208601610428565b61049181610452565b840191505092915050565b600060208201905081810360008301526104b68184610463565b905092915050565b6104c7816103a9565b82525050565b600060408201905081810360008301526104e78185610463565b90506104f660208301846104be565b9392505050565b600080fd5b600080fd5b7f4e487b7100000000000000000000000000000000000000000000000000000000600052604160045260246000fd5b61053f82610452565b810181811067ffffffffffffffff8211171561055e5761055d610507565b5b80604052505050565b6000610571610395565b905061057d8282610536565b919050565b600067ffffffffffffffff82111561059d5761059c610507565b5b6105a682610452565b9050602081019050919050565b82818337600083830152505050565b60006105d56105d084610582565b610567565b9050828152602081018484840111156105f1576105f0610502565b5b6105fc8482856105b3565b509392505050565b600082601f830112610619576106186104fd565b5b81356106298482602086016105c2565b91505092915050565b6000602082840312156106485761064761039f565b5b600082013567ffffffffffffffff811115610666576106656103a4565b5b61067284828501610604565b91505092915050565b600060208201905061069060008301846104be565b92915050565b600080604083850312156106ad576106ac61039f565b5b600083013567ffffffffffffffff8111156106cb576106ca6103a4565b5b6106d785828601610604565b92505060206106e8858286016103ca565b9150509250929050565b7f4e487b7100000000000000000000000000000000000000000000000000000000600052602260045260246000fd5b6000600282049050600182168061073957607f821691505b60208210810361074c5761074b6106f2565b5b50919050565b60008190508160005260206000209050919050565b60006020601f8301049050919050565b600082821b905092915050565b6000600883026107b47fffffffffffffffffffffffffffffffffffffffffffffffffffffffffffffffff82610777565b6107be8683610777565b95508019841693508086168417925050509392505050565b6000819050919050565b60006107fb6107f66107f1846103a9565b6107d6565b6103a9565b9050919050565b6000819050919050565b610815836107e0565b61082961082182610802565b848454610784565b825550505050565b600090565b61083e610831565b61084981848461080c565b505050565b5b8181101561086d57610862600082610836565b60018101905061084f565b5050565b601f8211156108b25761088381610752565b61088c84610767565b8101602085101561089b578190505b6108af6108a785610767565b83018261084e565b50505b505050565b600082821c905092915050565b60006108d5600019846008026108b7565b1980831691505092915050565b60006108ee83836108c4565b9150826002028217905092915050565b6109078261040c565b67ffffffffffffffff8111156109205761091f610507565b5b61092a8254610721565b610935828285610871565b600060209050601f8311600181146109685760008415610956578287015190505b61096085826108e2565b8655506109c8565b601f19841661097686610752565b60005b8281101561099e57848901518255600182019150602085019450602081019050610979565b868310156109bb57848901516109b7601f8916826108c4565b8355505b6001600288020188555050505b505050505050565b600081905092915050565b60006109e68261040c565b6109f081856109d0565b9350610a00818560208601610428565b80840191505092915050565b6000610a1882846109db565b91508190509291505056fea2646970667358221220567ed040a22b1f5f048a192d99cf293dce15063c7ba08436d0643de6f135318864736f6c63430008130033",
					"opcodes": "PUSH1 0x80 PUSH1 0x40 MSTORE CALLVALUE DUP1 ISZERO PUSH2 0x10 JUMPI PUSH1 0x0 DUP1 REVERT JUMPDEST POP PUSH2 0xA59 DUP1 PUSH2 0x20 PUSH1 0x0 CODECOPY PUSH1 0x0 RETURN INVALID PUSH1 0x80 PUSH1 0x40 MSTORE CALLVALUE DUP1 ISZERO PUSH2 0x10 JUMPI PUSH1 0x0 DUP1 REVERT JUMPDEST POP PUSH1 0x4 CALLDATASIZE LT PUSH2 0x62 JUMPI PUSH1 0x0 CALLDATALOAD PUSH1 0xE0 SHR DUP1 PUSH4 0x1F909971 EQ PUSH2 0x67 JUMPI DUP1 PUSH4 0x4DE86672 EQ PUSH2 0x97 JUMPI DUP1 PUSH4 0x649CEAB8 EQ PUSH2 0xC8 JUMPI DUP1 PUSH4 0x7BC55CE1 EQ PUSH2 0xF8 JUMPI DUP1 PUSH4 0xD3C1E0D9 EQ PUSH2 0x114 JUMPI DUP1 PUSH4 0xDA9C2B6B EQ PUSH2 0x132 JUMPI JUMPDEST PUSH1 0x0 DUP1 REVERT JUMPDEST PUSH2 0x81 PUSH1 0x4 DUP1 CALLDATASIZE SUB DUP2 ADD SWAP1 PUSH2 0x7C SWAP2 SWAP1 PUSH2 0x3DF JUMP JUMPDEST PUSH2 0x14E JUMP JUMPDEST PUSH1 0x40 MLOAD PUSH2 0x8E SWAP2 SWAP1 PUSH2 0x49C JUMP JUMPDEST PUSH1 0x40 MLOAD DUP1 SWAP2 SUB SWAP1 RETURN JUMPDEST PUSH2 0xB1 PUSH1 0x4 DUP1 CALLDATASIZE SUB DUP2 ADD SWAP1 PUSH2 0xAC SWAP2 SWAP1 PUSH2 0x3DF JUMP JUMPDEST PUSH2 0x1EE JUMP JUMPDEST PUSH1 0x40 MLOAD PUSH2 0xBF SWAP3 SWAP2 SWAP1 PUSH2 0x4CD JUMP JUMPDEST PUSH1 0x40 MLOAD DUP1 SWAP2 SUB SWAP1 RETURN JUMPDEST PUSH2 0xE2 PUSH1 0x4 DUP1 CALLDATASIZE SUB DUP2 ADD SWAP1 PUSH2 0xDD SWAP2 SWAP1 PUSH2 0x632 JUMP JUMPDEST PUSH2 0x2AA JUMP JUMPDEST PUSH1 0x40 MLOAD PUSH2 0xEF SWAP2 SWAP1 PUSH2 0x67B JUMP JUMPDEST PUSH1 0x40 MLOAD DUP1 SWAP2 SUB SWAP1 RETURN JUMPDEST PUSH2 0x112 PUSH1 0x4 DUP1 CALLDATASIZE SUB DUP2 ADD SWAP1 PUSH2 0x10D SWAP2 SWAP1 PUSH2 0x3DF JUMP JUMPDEST PUSH2 0x2D8 JUMP JUMPDEST STOP JUMPDEST PUSH2 0x11C PUSH2 0x2E2 JUMP JUMPDEST PUSH1 0x40 MLOAD PUSH2 0x129 SWAP2 SWAP1 PUSH2 0x67B JUMP JUMPDEST PUSH1 0x40 MLOAD DUP1 SWAP2 SUB SWAP1 RETURN JUMPDEST PUSH2 0x14C PUSH1 0x4 DUP1 CALLDATASIZE SUB DUP2 ADD SWAP1 PUSH2 0x147 SWAP2 SWAP1 PUSH2 0x696 JUMP JUMPDEST PUSH2 0x2EB JUMP JUMPDEST STOP JUMPDEST PUSH1 0x2 PUSH1 0x20 MSTORE DUP1 PUSH1 0x0 MSTORE PUSH1 0x40 PUSH1 0x0 KECCAK256 PUSH1 0x0 SWAP2 POP SWAP1 POP DUP1 SLOAD PUSH2 0x16D SWAP1 PUSH2 0x721 JUMP JUMPDEST DUP1 PUSH1 0x1F ADD PUSH1 0x20 DUP1 SWAP2 DIV MUL PUSH1 0x20 ADD PUSH1 0x40 MLOAD SWAP1 DUP2 ADD PUSH1 0x40 MSTORE DUP1 SWAP3 SWAP2 SWAP1 DUP2 DUP2 MSTORE PUSH1 0x20 ADD DUP3 DUP1 SLOAD PUSH2 0x199 SWAP1 PUSH2 0x721 JUMP JUMPDEST DUP1 ISZERO PUSH2 0x1E6 JUMPI DUP1 PUSH1 0x1F LT PUSH2 0x1BB JUMPI PUSH2 0x100 DUP1 DUP4 SLOAD DIV MUL DUP4 MSTORE SWAP2 PUSH1 0x20 ADD SWAP2 PUSH2 0x1E6 JUMP JUMPDEST DUP3 ADD SWAP2 SWAP1 PUSH1 0x0 MSTORE PUSH1 0x20 PUSH1 0x0 KECCAK256 SWAP1 JUMPDEST DUP2 SLOAD DUP2 MSTORE SWAP1 PUSH1 0x1 ADD SWAP1 PUSH1 0x20 ADD DUP1 DUP4 GT PUSH2 0x1C9 JUMPI DUP3 SWAP1 SUB PUSH1 0x1F AND DUP3 ADD SWAP2 JUMPDEST POP POP POP POP POP DUP2 JUMP JUMPDEST PUSH1 0x3 DUP2 DUP2 SLOAD DUP2 LT PUSH2 0x1FE JUMPI PUSH1 0x0 DUP1 REVERT JUMPDEST SWAP1 PUSH1 0x0 MSTORE PUSH1 0x20 PUSH1 0x0 KECCAK256 SWAP1 PUSH1 0x2 MUL ADD PUSH1 0x0 SWAP2 POP SWAP1 POP DUP1 PUSH1 0x0 ADD DUP1 SLOAD PUSH2 0x221 SWAP1 PUSH2 0x721 JUMP JUMPDEST DUP1 PUSH1 0x1F ADD PUSH1 0x20 DUP1 SWAP2 DIV MUL PUSH1 0x20 ADD PUSH1 0x40 MLOAD SWAP1 DUP2 ADD PUSH1 0x40 MSTORE DUP1 SWAP3 SWAP2 SWAP1 DUP2 DUP2 MSTORE PUSH1 0x20 ADD DUP3 DUP1 SLOAD PUSH2 0x24D SWAP1 PUSH2 0x721 JUMP JUMPDEST DUP1 ISZERO PUSH2 0x29A JUMPI DUP1 PUSH1 0x1F LT PUSH2 0x26F JUMPI PUSH2 0x100 DUP1 DUP4 SLOAD DIV MUL DUP4 MSTORE SWAP2 PUSH1 0x20 ADD SWAP2 PUSH2 0x29A JUMP JUMPDEST DUP3 ADD SWAP2 SWAP1 PUSH1 0x0 MSTORE PUSH1 0x20 PUSH1 0x0 KECCAK256 SWAP1 JUMPDEST DUP2 SLOAD DUP2 MSTORE SWAP1 PUSH1 0x1 ADD SWAP1 PUSH1 0x20 ADD DUP1 DUP4 GT PUSH2 0x27D JUMPI DUP3 SWAP1 SUB PUSH1 0x1F AND DUP3 ADD SWAP2 JUMPDEST POP POP POP POP POP SWAP1 DUP1 PUSH1 0x1 ADD SLOAD SWAP1 POP DUP3 JUMP JUMPDEST PUSH1 0x1 DUP2 DUP1 MLOAD PUSH1 0x20 DUP2 ADD DUP3 ADD DUP1 MLOAD DUP5 DUP3 MSTORE PUSH1 0x20 DUP4 ADD PUSH1 0x20 DUP6 ADD KECCAK256 DUP2 DUP4 MSTORE DUP1 SWAP6 POP POP POP POP POP POP PUSH1 0x0 SWAP2 POP SWAP1 POP SLOAD DUP2 JUMP JUMPDEST DUP1 PUSH1 0x0 DUP2 SWAP1 SSTORE POP POP JUMP JUMPDEST PUSH1 0x0 DUP1 SLOAD SWAP1 POP SWAP1 JUMP JUMPDEST PUSH1 0x3 PUSH1 0x40 MLOAD DUP1 PUSH1 0x40 ADD PUSH1 0x40 MSTORE DUP1 DUP5 DUP2 MSTORE PUSH1 0x20 ADD DUP4 DUP2 MSTORE POP SWAP1 DUP1 PUSH1 0x1 DUP2 SLOAD ADD DUP1 DUP3 SSTORE DUP1 SWAP2 POP POP PUSH1 0x1 SWAP1 SUB SWAP1 PUSH1 0x0 MSTORE PUSH1 0x20 PUSH1 0x0 KECCAK256 SWAP1 PUSH1 0x2 MUL ADD PUSH1 0x0 SWAP1 SWAP2 SWAP1 SWAP2 SWAP1 SWAP2 POP PUSH1 0x0 DUP3 ADD MLOAD DUP2 PUSH1 0x0 ADD SWAP1 DUP2 PUSH2 0x340 SWAP2 SWAP1 PUSH2 0x8FE JUMP JUMPDEST POP PUSH1 0x20 DUP3 ADD MLOAD DUP2 PUSH1 0x1 ADD SSTORE POP POP DUP1 PUSH1 0x1 DUP4 PUSH1 0x40 MLOAD PUSH2 0x35E SWAP2 SWAP1 PUSH2 0xA0C JUMP JUMPDEST SWAP1 DUP2 MSTORE PUSH1 0x20 ADD PUSH1 0x40 MLOAD DUP1 SWAP2 SUB SWAP1 KECCAK256 DUP2 SWAP1 SSTORE POP DUP2 PUSH1 0x2 PUSH1 0x0 DUP4 DUP2 MSTORE PUSH1 0x20 ADD SWAP1 DUP2 MSTORE PUSH1 0x20 ADD PUSH1 0x0 KECCAK256 SWAP1 DUP2 PUSH2 0x390 SWAP2 SWAP1 PUSH2 0x8FE JUMP JUMPDEST POP POP POP JUMP JUMPDEST PUSH1 0x0 PUSH1 0x40 MLOAD SWAP1 POP SWAP1 JUMP JUMPDEST PUSH1 0x0 DUP1 REVERT JUMPDEST PUSH1 0x0 DUP1 REVERT JUMPDEST PUSH1 0x0 DUP2 SWAP1 POP SWAP2 SWAP1 POP JUMP JUMPDEST PUSH2 0x3BC DUP2 PUSH2 0x3A9 JUMP JUMPDEST DUP2 EQ PUSH2 0x3C7 JUMPI PUSH1 0x0 DUP1 REVERT JUMPDEST POP JUMP JUMPDEST PUSH1 0x0 DUP2 CALLDATALOAD SWAP1 POP PUSH2 0x3D9 DUP2 PUSH2 0x3B3 JUMP JUMPDEST SWAP3 SWAP2 POP POP JUMP JUMPDEST PUSH1 0x0 PUSH1 0x20 DUP3 DUP5 SUB SLT ISZERO PUSH2 0x3F5 JUMPI PUSH2 0x3F4 PUSH2 0x39F JUMP JUMPDEST JUMPDEST PUSH1 0x0 PUSH2 0x403 DUP5 DUP3 DUP6 ADD PUSH2 0x3CA JUMP JUMPDEST SWAP2 POP POP SWAP3 SWAP2 POP POP JUMP JUMPDEST PUSH1 0x0 DUP2 MLOAD SWAP1 POP SWAP2 SWAP1 POP JUMP JUMPDEST PUSH1 0x0 DUP3 DUP3 MSTORE PUSH1 0x20 DUP3 ADD SWAP1 POP SWAP3 SWAP2 POP POP JUMP JUMPDEST PUSH1 0x0 JUMPDEST DUP4 DUP2 LT ISZERO PUSH2 0x446 JUMPI DUP1 DUP3 ADD MLOAD DUP2 DUP5 ADD MSTORE PUSH1 0x20 DUP2 ADD SWAP1 POP PUSH2 0x42B JUMP JUMPDEST PUSH1 0x0 DUP5 DUP5 ADD MSTORE POP POP POP POP JUMP JUMPDEST PUSH1 0x0 PUSH1 0x1F NOT PUSH1 0x1F DUP4 ADD AND SWAP1 POP SWAP2 SWAP1 POP JUMP JUMPDEST PUSH1 0x0 PUSH2 0x46E DUP3 PUSH2 0x40C JUMP JUMPDEST PUSH2 0x478 DUP2 DUP6 PUSH2 0x417 JUMP JUMPDEST SWAP4 POP PUSH2 0x488 DUP2 DUP6 PUSH1 0x20 DUP7 ADD PUSH2 0x428 JUMP JUMPDEST PUSH2 0x491 DUP2 PUSH2 0x452 JUMP JUMPDEST DUP5 ADD SWAP2 POP POP SWAP3 SWAP2 POP POP JUMP JUMPDEST PUSH1 0x0 PUSH1 0x20 DUP3 ADD SWAP1 POP DUP2 DUP2 SUB PUSH1 0x0 DUP4 ADD MSTORE PUSH2 0x4B6 DUP2 DUP5 PUSH2 0x463 JUMP JUMPDEST SWAP1 POP SWAP3 SWAP2 POP POP JUMP JUMPDEST PUSH2 0x4C7 DUP2 PUSH2 0x3A9 JUMP JUMPDEST DUP3 MSTORE POP POP JUMP JUMPDEST PUSH1 0x0 PUSH1 0x40 DUP3 ADD SWAP1 POP DUP2 DUP2 SUB PUSH1 0x0 DUP4 ADD MSTORE PUSH2 0x4E7 DUP2 DUP6 PUSH2 0x463 JUMP JUMPDEST SWAP1 POP PUSH2 0x4F6 PUSH1 0x20 DUP4 ADD DUP5 PUSH2 0x4BE JUMP JUMPDEST SWAP4 SWAP3 POP POP POP JUMP JUMPDEST PUSH1 0x0 DUP1 REVERT JUMPDEST PUSH1 0x0 DUP1 REVERT JUMPDEST PUSH32 0x4E487B7100000000000000000000000000000000000000000000000000000000 PUSH1 0x0 MSTORE PUSH1 0x41 PUSH1 0x4 MSTORE PUSH1 0x24 PUSH1 0x0 REVERT JUMPDEST PUSH2 0x53F DUP3 PUSH2 0x452 JUMP JUMPDEST DUP2 ADD DUP2 DUP2 LT PUSH8 0xFFFFFFFFFFFFFFFF DUP3 GT OR ISZERO PUSH2 0x55E JUMPI PUSH2 0x55D PUSH2 0x507 JUMP JUMPDEST JUMPDEST DUP1 PUSH1 0x40 MSTORE POP POP POP JUMP JUMPDEST PUSH1 0x0 PUSH2 0x571 PUSH2 0x395 JUMP JUMPDEST SWAP1 POP PUSH2 0x57D DUP3 DUP3 PUSH2 0x536 JUMP JUMPDEST SWAP2 SWAP1 POP JUMP JUMPDEST PUSH1 0x0 PUSH8 0xFFFFFFFFFFFFFFFF DUP3 GT ISZERO PUSH2 0x59D JUMPI PUSH2 0x59C PUSH2 0x507 JUMP JUMPDEST JUMPDEST PUSH2 0x5A6 DUP3 PUSH2 0x452 JUMP JUMPDEST SWAP1 POP PUSH1 0x20 DUP2 ADD SWAP1 POP SWAP2 SWAP1 POP JUMP JUMPDEST DUP3 DUP2 DUP4 CALLDATACOPY PUSH1 0x0 DUP4 DUP4 ADD MSTORE POP POP POP JUMP JUMPDEST PUSH1 0x0 PUSH2 0x5D5 PUSH2 0x5D0 DUP5 PUSH2 0x582 JUMP JUMPDEST PUSH2 0x567 JUMP JUMPDEST SWAP1 POP DUP3 DUP2 MSTORE PUSH1 0x20 DUP2 ADD DUP5 DUP5 DUP5 ADD GT ISZERO PUSH2 0x5F1 JUMPI PUSH2 0x5F0 PUSH2 0x502 JUMP JUMPDEST JUMPDEST PUSH2 0x5FC DUP5 DUP3 DUP6 PUSH2 0x5B3 JUMP JUMPDEST POP SWAP4 SWAP3 POP POP POP JUMP JUMPDEST PUSH1 0x0 DUP3 PUSH1 0x1F DUP4 ADD SLT PUSH2 0x619 JUMPI PUSH2 0x618 PUSH2 0x4FD JUMP JUMPDEST JUMPDEST DUP2 CALLDATALOAD PUSH2 0x629 DUP5 DUP3 PUSH1 0x20 DUP7 ADD PUSH2 0x5C2 JUMP JUMPDEST SWAP2 POP POP SWAP3 SWAP2 POP POP JUMP JUMPDEST PUSH1 0x0 PUSH1 0x20 DUP3 DUP5 SUB SLT ISZERO PUSH2 0x648 JUMPI PUSH2 0x647 PUSH2 0x39F JUMP JUMPDEST JUMPDEST PUSH1 0x0 DUP3 ADD CALLDATALOAD PUSH8 0xFFFFFFFFFFFFFFFF DUP2 GT ISZERO PUSH2 0x666 JUMPI PUSH2 0x665 PUSH2 0x3A4 JUMP JUMPDEST JUMPDEST PUSH2 0x672 DUP5 DUP3 DUP6 ADD PUSH2 0x604 JUMP JUMPDEST SWAP2 POP POP SWAP3 SWAP2 POP POP JUMP JUMPDEST PUSH1 0x0 PUSH1 0x20 DUP3 ADD SWAP1 POP PUSH2 0x690 PUSH1 0x0 DUP4 ADD DUP5 PUSH2 0x4BE JUMP JUMPDEST SWAP3 SWAP2 POP POP JUMP JUMPDEST PUSH1 0x0 DUP1 PUSH1 0x40 DUP4 DUP6 SUB SLT ISZERO PUSH2 0x6AD JUMPI PUSH2 0x6AC PUSH2 0x39F JUMP JUMPDEST JUMPDEST PUSH1 0x0 DUP4 ADD CALLDATALOAD PUSH8 0xFFFFFFFFFFFFFFFF DUP2 GT ISZERO PUSH2 0x6CB JUMPI PUSH2 0x6CA PUSH2 0x3A4 JUMP JUMPDEST JUMPDEST PUSH2 0x6D7 DUP6 DUP3 DUP7 ADD PUSH2 0x604 JUMP JUMPDEST SWAP3 POP POP PUSH1 0x20 PUSH2 0x6E8 DUP6 DUP3 DUP7 ADD PUSH2 0x3CA JUMP JUMPDEST SWAP2 POP POP SWAP3 POP SWAP3 SWAP1 POP JUMP JUMPDEST PUSH32 0x4E487B7100000000000000000000000000000000000000000000000000000000 PUSH1 0x0 MSTORE PUSH1 0x22 PUSH1 0x4 MSTORE PUSH1 0x24 PUSH1 0x0 REVERT JUMPDEST PUSH1 0x0 PUSH1 0x2 DUP3 DIV SWAP1 POP PUSH1 0x1 DUP3 AND DUP1 PUSH2 0x739 JUMPI PUSH1 0x7F DUP3 AND SWAP2 POP JUMPDEST PUSH1 0x20 DUP3 LT DUP2 SUB PUSH2 0x74C JUMPI PUSH2 0x74B PUSH2 0x6F2 JUMP JUMPDEST JUMPDEST POP SWAP2 SWAP1 POP JUMP JUMPDEST PUSH1 0x0 DUP2 SWAP1 POP DUP2 PUSH1 0x0 MSTORE PUSH1 0x20 PUSH1 0x0 KECCAK256 SWAP1 POP SWAP2 SWAP1 POP JUMP JUMPDEST PUSH1 0x0 PUSH1 0x20 PUSH1 0x1F DUP4 ADD DIV SWAP1 POP SWAP2 SWAP1 POP JUMP JUMPDEST PUSH1 0x0 DUP3 DUP3 SHL SWAP1 POP SWAP3 SWAP2 POP POP JUMP JUMPDEST PUSH1 0x0 PUSH1 0x8 DUP4 MUL PUSH2 0x7B4 PUSH32 0xFFFFFFFFFFFFFFFFFFFFFFFFFFFFFFFFFFFFFFFFFFFFFFFFFFFFFFFFFFFFFFFF DUP3 PUSH2 0x777 JUMP JUMPDEST PUSH2 0x7BE DUP7 DUP4 PUSH2 0x777 JUMP JUMPDEST SWAP6 POP DUP1 NOT DUP5 AND SWAP4 POP DUP1 DUP7 AND DUP5 OR SWAP3 POP POP POP SWAP4 SWAP3 POP POP POP JUMP JUMPDEST PUSH1 0x0 DUP2 SWAP1 POP SWAP2 SWAP1 POP JUMP JUMPDEST PUSH1 0x0 PUSH2 0x7FB PUSH2 0x7F6 PUSH2 0x7F1 DUP5 PUSH2 0x3A9 JUMP JUMPDEST PUSH2 0x7D6 JUMP JUMPDEST PUSH2 0x3A9 JUMP JUMPDEST SWAP1 POP SWAP2 SWAP1 POP JUMP JUMPDEST PUSH1 0x0 DUP2 SWAP1 POP SWAP2 SWAP1 POP JUMP JUMPDEST PUSH2 0x815 DUP4 PUSH2 0x7E0 JUMP JUMPDEST PUSH2 0x829 PUSH2 0x821 DUP3 PUSH2 0x802 JUMP JUMPDEST DUP5 DUP5 SLOAD PUSH2 0x784 JUMP JUMPDEST DUP3 SSTORE POP POP POP POP JUMP JUMPDEST PUSH1 0x0 SWAP1 JUMP JUMPDEST PUSH2 0x83E PUSH2 0x831 JUMP JUMPDEST PUSH2 0x849 DUP2 DUP5 DUP5 PUSH2 0x80C JUMP JUMPDEST POP POP POP JUMP JUMPDEST JUMPDEST DUP2 DUP2 LT ISZERO PUSH2 0x86D JUMPI PUSH2 0x862 PUSH1 0x0 DUP3 PUSH2 0x836 JUMP JUMPDEST PUSH1 0x1 DUP2 ADD SWAP1 POP PUSH2 0x84F JUMP JUMPDEST POP POP JUMP JUMPDEST PUSH1 0x1F DUP3 GT ISZERO PUSH2 0x8B2 JUMPI PUSH2 0x883 DUP2 PUSH2 0x752 JUMP JUMPDEST PUSH2 0x88C DUP5 PUSH2 0x767 JUMP JUMPDEST DUP2 ADD PUSH1 0x20 DUP6 LT ISZERO PUSH2 0x89B JUMPI DUP2 SWAP1 POP JUMPDEST PUSH2 0x8AF PUSH2 0x8A7 DUP6 PUSH2 0x767 JUMP JUMPDEST DUP4 ADD DUP3 PUSH2 0x84E JUMP JUMPDEST POP POP JUMPDEST POP POP POP JUMP JUMPDEST PUSH1 0x0 DUP3 DUP3 SHR SWAP1 POP SWAP3 SWAP2 POP POP JUMP JUMPDEST PUSH1 0x0 PUSH2 0x8D5 PUSH1 0x0 NOT DUP5 PUSH1 0x8 MUL PUSH2 0x8B7 JUMP JUMPDEST NOT DUP1 DUP4 AND SWAP2 POP POP SWAP3 SWAP2 POP POP JUMP JUMPDEST PUSH1 0x0 PUSH2 0x8EE DUP4 DUP4 PUSH2 0x8C4 JUMP JUMPDEST SWAP2 POP DUP3 PUSH1 0x2 MUL DUP3 OR SWAP1 POP SWAP3 SWAP2 POP POP JUMP JUMPDEST PUSH2 0x907 DUP3 PUSH2 0x40C JUMP JUMPDEST PUSH8 0xFFFFFFFFFFFFFFFF DUP2 GT ISZERO PUSH2 0x920 JUMPI PUSH2 0x91F PUSH2 0x507 JUMP JUMPDEST JUMPDEST PUSH2 0x92A DUP3 SLOAD PUSH2 0x721 JUMP JUMPDEST PUSH2 0x935 DUP3 DUP3 DUP6 PUSH2 0x871 JUMP JUMPDEST PUSH1 0x0 PUSH1 0x20 SWAP1 POP PUSH1 0x1F DUP4 GT PUSH1 0x1 DUP2 EQ PUSH2 0x968 JUMPI PUSH1 0x0 DUP5 ISZERO PUSH2 0x956 JUMPI DUP3 DUP8 ADD MLOAD SWAP1 POP JUMPDEST PUSH2 0x960 DUP6 DUP3 PUSH2 0x8E2 JUMP JUMPDEST DUP7 SSTORE POP PUSH2 0x9C8 JUMP JUMPDEST PUSH1 0x1F NOT DUP5 AND PUSH2 0x976 DUP7 PUSH2 0x752 JUMP JUMPDEST PUSH1 0x0 JUMPDEST DUP3 DUP2 LT ISZERO PUSH2 0x99E JUMPI DUP5 DUP10 ADD MLOAD DUP3 SSTORE PUSH1 0x1 DUP3 ADD SWAP2 POP PUSH1 0x20 DUP6 ADD SWAP5 POP PUSH1 0x20 DUP2 ADD SWAP1 POP PUSH2 0x979 JUMP JUMPDEST DUP7 DUP4 LT ISZERO PUSH2 0x9BB JUMPI DUP5 DUP10 ADD MLOAD PUSH2 0x9B7 PUSH1 0x1F DUP10 AND DUP3 PUSH2 0x8C4 JUMP JUMPDEST DUP4 SSTORE POP JUMPDEST PUSH1 0x1 PUSH1 0x2 DUP9 MUL ADD DUP9 SSTORE POP POP POP JUMPDEST POP POP POP POP POP POP JUMP JUMPDEST PUSH1 0x0 DUP2 SWAP1 POP SWAP3 SWAP2 POP POP JUMP JUMPDEST PUSH1 0x0 PUSH2 0x9E6 DUP3 PUSH2 0x40C JUMP JUMPDEST PUSH2 0x9F0 DUP2 DUP6 PUSH2 0x9D0 JUMP JUMPDEST SWAP4 POP PUSH2 0xA00 DUP2 DUP6 PUSH1 0x20 DUP7 ADD PUSH2 0x428 JUMP JUMPDEST DUP1 DUP5 ADD SWAP2 POP POP SWAP3 SWAP2 POP POP JUMP JUMPDEST PUSH1 0x0 PUSH2 0xA18 DUP3 DUP5 PUSH2 0x9DB JUMP JUMPDEST SWAP2 POP DUP2 SWAP1 POP SWAP3 SWAP2 POP POP JUMP INVALID LOG2 PUSH5 0x6970667358 0x22 SLT KECCAK256 JUMP PUSH31 0xD040A22B1F5F048A192D99CF293DCE15063C7BA08436D0643DE6F135318864 PUSH20 0x6F6C634300081300330000000000000000000000 "
				},
				"gasEstimates": {
					"creation": {
						"codeDepositCost": "529800",
						"executionCost": "562",
						"totalCost": "530362"
					},
					"external": {
						"addNewPerson(string,uint256)": "infinite",
						"addPerson(uint256)": "22564",
						"listofPerson(uint256)": "infinite",
						"mapFavouriteNumber(string)": "infinite",
						"mapFavouriteNumber2(uint256)": "infinite",
						"retrievePerson()": "2503"
					}
				},
				"methodIdentifiers": {
					"addNewPerson(string,uint256)": "da9c2b6b",
					"addPerson(uint256)": "7bc55ce1",
					"listofPerson(uint256)": "4de86672",
					"mapFavouriteNumber(string)": "649ceab8",
					"mapFavouriteNumber2(uint256)": "1f909971",
					"retrievePerson()": "d3c1e0d9"
				}
			},
			"storageLayout": {
				"storage": [
					{
						"astId": 3,
						"contract": "contract/test2.sol:scofield",
						"label": "Favourite_person",
						"offset": 0,
						"slot": "0",
						"type": "t_uint256"
					},
					{
						"astId": 12,
						"contract": "contract/test2.sol:scofield",
						"label": "mapFavouriteNumber",
						"offset": 0,
						"slot": "1",
						"type": "t_mapping(t_string_memory_ptr,t_uint256)"
					},
					{
						"astId": 16,
						"contract": "contract/test2.sol:scofield",
						"label": "mapFavouriteNumber2",
						"offset": 0,
						"slot": "2",
						"type": "t_mapping(t_uint256,t_string_storage)"
					},
					{
						"astId": 20,
						"contract": "contract/test2.sol:scofield",
						"label": "listofPerson",
						"offset": 0,
						"slot": "3",
						"type": "t_array(t_struct(NewPerson)8_storage)dyn_storage"
					}
				],
				"types": {
					"t_array(t_struct(NewPerson)8_storage)dyn_storage": {
						"base": "t_struct(NewPerson)8_storage",
						"encoding": "dynamic_array",
						"label": "struct scofield.NewPerson[]",
						"numberOfBytes": "32"
					},
					"t_mapping(t_string_memory_ptr,t_uint256)": {
						"encoding": "mapping",
						"key": "t_string_memory_ptr",
						"label": "mapping(string => uint256)",
						"numberOfBytes": "32",
						"value": "t_uint256"
					},
					"t_mapping(t_uint256,t_string_storage)": {
						"encoding": "mapping",
						"key": "t_uint256",
						"label": "mapping(uint256 => string)",
						"numberOfBytes": "32",
						"value": "t_string_storage"
					},
					"t_string_memory_ptr": {
						"encoding": "bytes",
						"label": "string",
						"numberOfBytes": "32"
					},
					"t_string_storage": {
						"encoding": "bytes",
						"label": "string",
						"numberOfBytes": "32"
					},
					"t_struct(NewPerson)8_storage": {
						"encoding": "inplace",
						"label": "struct scofield.NewPerson",
						"members": [
							{
								"astId": 5,
								"contract": "contract/test2.sol:scofield",
								"label": "name",
								"offset": 0,
								"slot": "0",
								"type": "t_string_storage"
							},
							{
								"astId": 7,
								"contract": "contract/test2.sol:scofield",
								"label": "favouritePerson",
								"offset": 0,
								"slot": "1",
								"type": "t_uint256"
							}
						],
						"numberOfBytes": "64"
					},
					"t_uint256": {
						"encoding": "inplace",
						"label": "uint256",
						"numberOfBytes": "32"
					}
				}
			},
			"userdoc": {
				"kind": "user",
				"methods": {},
				"version": 1
			}
		}
	}
}